:0200000460009A
:100000004643464200000156000000000103030081
:1000100000000000000000000000000000000000E0
:1000200000000000000000000000000000000000D0
:1000300000000000000000000000000000000000C0
:1000400000000000010408000000000000000000A3
:100050000000800000000000000000000000000020
:100060000000000000000000000000000000000090
:100070000000000000000000000000000000000080
:10008000EB04180A063204260000000000000000FD
:10009000050404240000000000000000000000002F
:1000A0000000000000000000000000000000000050
:1000B0000604000000000000000000000000000036
:1000C0000000000000000000000000000000000030
:1000D00020041808000000000000000000000000DC
:1000E0000000000000000000000000000000000010
:1000F0000000000000000000000000000000000000
:10010000D8041808000000000000000000000000F3
:100110000204180804200000000000000000000095
:1001200000000000000000000000000000000000CF
:10013000600400000000000000000000000000005B
:1001400000000000000000000000000000000000AF
:10015000000000000000000000000000000000009F
:10016000000000000000000000000000000000008F
:10017000000000000000000000000000000000007F
:10018000000000000000000000000000000000006F
:10019000000000000000000000000000000000005F
:1001A000000000000000000000000000000000004F
:1001B000000000000000000000000000000000003F
:1001C000000100000010000001000000000000001D
:1001D000000001000000000000000000000000001E
:1001E000000000000000000000000000000000000F
:1001F00000000000000000000000000000000000FF
:10020000FFFFFFFFFFFFFFFFFFFFFFFFFFFFFFFFFE
:10021000FFFFFFFFFFFFFFFFFFFFFFFFFFFFFFFFEE
:10100000D100204335160060000000000000000001
:1010100020100060001000600078016000000000F7
:10102000000000600084010000000000FFFFFFFFDF
:10103000FFFFFFFFFFFFFFFFFFFFFFFFFFFFFFFFC0
:10104000FFFFFFFFFFFFFFFFFFFFFFFFFFFFFFFFB0
:10105000FFFFFFFFFFFFFFFFFFFFFFFFFFFFFFFFA0
:10106000FFFFFFFFFFFFFFFFFFFFFFFFFFFFFFFF90
:10140000814205D051F8043B40F8043B8242F9D8B0
:101410007047044A04494FF0000342F8043B9142EC
:10142000FBD87047C02A0020002F012080B5BFF3F1
:101430004F8F00BF00BF00BF00BF00F07FFA654BB9
:101440000822C3F8542100BF00BF00BF00BF00BF87
:1014500000BF00BF00BF00BF00BF00BF00BF00BF94
:1014600000BF00BF00BF5C4A5C495D48FFF7C8FF92
:101470005C4A5D495D48FFF7C3FF5D4DFFF7C9FF5B
:101480004FF0E0234FF47002C3F8882D0023594A2F
:1014900045F823200133B02BFAD1574B8021574A0E
:1014A00003F8011B9342FBD14FF0E020494C4FF071
:1014B0008037DFF87891DFF878814FF0FF32C0F89D
:1014C000085DC4F80471C4F80091C4F8F470C4F85D
:1014D000F080D0F8243D4A4E43F4E023C0F8243D88
:1014E000F36923F07F0343F04003F361736A23F051
:1014F0007F0343F040037362424B9A66DA661A67D1
:101500005A6700F020FA404BAB63404BEB63632318
:10151000002543610323856103613D4BC0F8203DF5
:10152000D0F8FC3D43F08073C0F8FC3D394B1A689D
:1015300042F001021A605A68374B1A6000F0C6FB8D
:10154000C4F804713548C4F80091C4F8F470C4F8C4
:10155000F08000F09DFFF36E43F44053F366304B90
:101560001D60C3F80851C3F81851C3F82851C3F8D7
:10157000385103F5A0239A6BD20708D4294A5A653B
:1015800042F615621A659A6B42F001029A639A68F4
:10159000254C42F001129A6000F05EFA00F020FF44
:1015A00000F08AFF00F0C2FB00F0C9F92368132B9A
:1015B000FCD900F0FFF82368B3F5967FFBD300F069
:1015C000C0F900F0BDF900F037FF00F045FF30BF73
:1015D000FDE700BF00800D40682401002C2700605B
:1015E00000000000C02A0020984B0160000000208D
:1015F00000280020BDBB000000E400E0A0E400E003
:1016000000C00F4000C00A4099C800009DC80000FB
:1016100000002020001000E06428012000366E0148
:10162000004008400000C056682801201B10182008
:101630000C0D1113054B064A5A64064A1A644FF4FE
:101640002A029A63044B9D46FFF7F0FE00C00A4051
:10165000BFAAAAAA070020000080062043690A4A00
:1016600003EB011003EB011130B5047A074D02EBD7
:101670000412946852682560C06810600B690BB151
:101680004A691A6030BD00BF6407002061F801009C
:1016900038B543690446027E03EB0212127A8A428D
:1016A00019D0187AFF2816D0814215D0197EFF294B
:1016B00011D001251968EDB25B680968194209D09B
:1016C000064B2946204603EB021305225B681A608D
:1016D000FFF7C4FF257638BD0025EBE7640700203F
:1016E00043690A4A03EB011003EB011130B590F88E
:1016F0002840074D02EB0412946852682560C06AC6
:1017000010600B6B0BB14A6B1A6030BD6407002090
:1017100061F8010038B543690446427E03EB0212CA
:1017200092F828208A421BD093F82800FF2817D06F
:10173000814216D093F83810FF2911D0012519687D
:10174000EDB25B680968194209D0074B294620466B
:1017500003EB021305225B681A60FFF7C1FF657691
:1017600038BD0025EBE700BF640700200F4A416940
:10177000936B23F47C0343F4802310B593630446F6
:101780000A68496813680B43094913600222036918
:101790001A6100F06DFE217E2046FFF75FFF617E3B
:1017A0002046BDE81040FFF79BBF00BF00C00F40C0
:1017B000A0860100304B40F6617210B5C3F82021BD
:1017C00000F04EFE2D4A2E49D2F8803043F003033C
:1017D000C2F8803040F204422A4BC3F860212A4A02
:1017E0001068084203D1D3F8A8118C071AD04FF023
:1017F00000415163D3F8402142F00202C3F8402176
:10180000204AD2F840319807FBD44FF0E0234FF440
:1018100000321920C3F88C224FF000421A4B9A6311
:1018200000F012FE184B00214FF08042154C9A63D5
:101830004FF4407219600A23C4F8A831134B1846BC
:1018400000F032FE4FF4810240F2431302604FF485
:1018500080020264C4F858010D4AC4F848310D4BA7
:10186000C3F804224FF0E0234FF40032C3F80C21F8
:101870000123C4F8403110BD00800D4000C00F406E
:10188000001C1E0000002E4000900D4000000020B3
:10189000EDB200000028002008B50F4B1B6E9B071F
:1018A00000D4FBBE72B60D4B0022C3F84021A3F555
:1018B0000D130B4A1A64A3F1FF53A3F52B239D4686
:1018C000BFF34F8F0748084B03604FF40013DB69E9
:1018D0009B689847E6E700BF00441F4000002E4089
:1018E0000300200000802020000012EB074B0004C2
:1018F0000122C3F8A010C3F8A400C3F8B0205A69AD
:10190000D207FCD501225A61704700BF00402A402F
:10191000084B094AC3F8A000C3F8A4200122C3F869
:10192000B0205A69D207FCD5D3F80001212280B239
:101930005A61704700402A40040003007047704716
:10194000704700BF70474FF0E02300211022C3F81A
:10195000941DC3F89C2D2E4AC3F8A02D1122C3F864
:101960009C2D2C4AC3F8A02D1222C3F89C2D2A4A84
:10197000C3F8A02D294AC3F89C2D294AC3F8A02DED
:10198000284AC3F89C2D284AC3F8A02D274A42F0C4
:101990001502C3F89C2D264AC3F8A02D02F18152EE
:1019A0000D32C3F89C2D234AC3F8A02D224AC3F858
:1019B0009C2D224AC3F8A02D214AC3F89C2D214A10
:1019C000C3F8A02D204AC3F89C2D204AC3F8A02DAF
:1019D0001F4AC3F89C2D1F4AC3F8A02D00BF00BFAB
:1019E00000BF00BF00BF0122C3F8942DBFF34F8F8B
:1019F000BFF36F8FC3F8501FBFF34F8FBFF36F8FCD
:101A0000D3F8142D42F44032C3F8142D704700BFB0
:101A10003F000010250008070900100013002000F7
:101A2000210002071400002025000813002F0120C8
:101A30000900001027000B1317000040330010139B
:101A4000180000602F000B07190000702F000B1307
:101A50001A0000803B000B1373B5864B864A8749FA
:101A6000C3F85C22C3F86012C3F86422A2F53042C6
:101A7000834CC3F8682202F5E042C3F86C22C3F835
:101A80007022C3F87422C3F878221822DA661A6723
:101A90005A679A67DA67C3F88020C3F88420C3F8CE
:101AA00088200122C3F82C27C3F83027C3F8342735
:101AB000C3F83827C3F83C27C3F85027714A936905
:101AC00023F0604323F4407343F0204343F4407316
:101AD0009361D2F8843043F00C03C2F884306A4B2F
:101AE0001A6842F002021A601968684A21F4F1414A
:101AF00021F073010904090C0A4365491A604FF08B
:101B0000FF325A6002F57702886802F5605202409F
:101B1000604842F000529A60DA6822F07802DA6097
:101B20001A6A224002431A621A6A22404FF4005491
:101B3000024359485A62594A9A62DA62D1F8B82087
:101B400022F03F0242F00102C3F8B820D1F8BC20D5
:101B5000002122F03F0242F00102C3F8BC2040F213
:101B6000056219611C661867C3F880205C665867B7
:101B7000C3F884201A684A4822F002021A60494ACF
:101B80009A610222DA61484A42F8041B8242FBD180
:101B90001A6842F001021A603B4B1C6814F0010401
:101BA000FBD1404A0226214620469A6140F2F56266
:101BB000DE61C3F8002240F26642C3F8102240F210
:101BC0009942C3F82022394AC3F8302242F2014236
:101BD000C3F8342240F23542C3F84022344AC3F8F5
:101BE0005022344AC3F85422334AC3F8602242F2E6
:101BF0000122C3F86422FFF779FE0120FFF776FE89
:101C00003046FFF773FE2046FFF782FE45F60D5380
:101C10000546984227D10420FFF768FE4FF40001E3
:101C20002046FFF763FE0120FFF760FE3046FFF716
:101C30005DFE0846FFF76CFEA84212D10420FFF7B4
:101C400055FE10201D491E4B1E4A18700023521AC3
:101C50000093012302EB00521B4800F01DFC02B070
:101C600070BD0820EEE71022174802B0BDE87040B2
:101C700000F01ABC00801F40F9B00100F91001000B
:101C800000FFF07C00C00F4000402A401200FFFF20
:101C900000802A404000008063000200FF000F83A4
:101CA00000432A40F05AF05A00422A409F0418305C
:101CB000EB06180A063201263806180A00002470BE
:101CC000AF2E0120000000709820012070B5164B47
:101CD0004FF480514FF400504FF440444FF480359E
:101CE00043F242061A6912F0020F03D09C615D6153
:101CF0009E61F7E712F4005F01D15861F2E712F438
:101D0000805F01D15961EDE7002AEBDA12F4803FE0
:101D100003D04FF480329A61E4E7520602D44022A5
:101D20005A61DFE770BD00BF00800D403E4AB3EE50
:101D3000096A3E48D2F880309FED3D5A23F00103F6
:101D400010B5C2F8803003233A4CC2F890303A4BB9
:101D5000D3F8E030D9B2016007EE901AC3F30B203C
:101D60001B0DB8EEE77A354907EE900A2060F8EED1
:101D7000E76A07EE903A37EE455A314BF8EEE77ACC
:101D800037EE466A77EEE67A81ED006A25EE275A4D
:101D9000C3ED007AD2F88030C5EE065A75EEA65A29
:101DA000FCEEE55A15EE901ADFED265A37EE657A0D
:101DB00043EA0153C2F8803027EE277A224B66EEC1
:101DC000277AD2F89011C7EE065A35EEA67ABCEE05
:101DD000C77A17EE100A87EE867A03EA00430B43B0
:101DE000C2F89031D2F8901177EE267AFCEEE77ABD
:101DF00017EE903AC3F30B030B43C2F89031D2F8BD
:101E0000803043F00203C2F8803000220F4B83F889
:101E100040200F4B0F4AC3F840214FF0E02301222E
:101E2000C3F8082110BD00BF00810D40C82101206A
:101E30000000AA42C421012000441F40CC210120FF
:101E4000D02101200000B4420000FF0F00E400E0B8
:101E5000002800205DC2000070B5104CD4F880301E
:101E60000B2B18D14FF0FF330D4A0E4E0E4D11685B
:101E700004324B40202143F30000013900EA060000
:101E800080EA5303F7D1AA42F1D1D4F8A800C31ACB
:101E90005842584170BD0020FCE700BF00FF2720DA
:101EA00080FF27202083B8EDA8FF2720184A0023B1
:101EB00070B5C2E92033C2E92233C2E92433C2E952
:101EC0002633C2F8A830BFF34F8F4FF0E0248032A2
:101ED000C4F8702F2032C4F8702FBFF34F8FBFF3B8
:101EE0006F8F0C4A0C4E91680C4D91601C2113634E
:101EF0002846C6F8C03F00F0A3FAC6F8DC0FBFF3CF
:101F00004F8FC4F8685FBFF34F8FBFF36F8F70BD03
:101F100000FF272000800F4000F02720C0FF27206F
:101F20002DE9F0470C46FFF797FF002800F0D68117
:101F3000B04E2046B0493C2500F0A2FAD6F8A49055
:101F4000AE492046B9FBF5F8B8FBF5F7C6F8A47022
:101F500000F07EFA182100230A22B7FBF1F001FB02
:101F60001071204600F0A4FAA549204600F070FA4E
:101F700000230A2205FB1781204600F099FAA049A8
:101F8000204600F065FA00230A2205FB189120463E
:101F900000F08EFA204600F083FA9A49204600F0BD
:101FA00057FA1022D6F89810204600F065FAD6F8B5
:101FB0008850002D59D09449204600F049FA10224B
:101FC000D6F88810204600F057FAEA0740F1D5808D
:101FD0008E49204600F054FA2A062CD58C4920461A
:101FE00000F036FA10220023D6F89010204600F0B8
:101FF0005FFAD6F890201F2A00F2D080854920464B
:1020000000F026FA00231022D6F89810204600F09F
:102010004FFA8149204600F01BFAD6F898100023A9
:102020001022204600F044FA7C49204600F010FAC5
:10203000204600F035FAEB0540F1BA807849204699
:1020400000F01EFA2F0409D57649204600F000FA68
:102050001022D6F89410204600F00EFAE80340F162
:10206000BC807149204600F00BFAD6F88C5085B13F
:102070006E49204600F0ECF920461022D6F88C106C
:1020800000F0FAF9A80740F124816949204600F0E0
:10209000F7F96849204600F0DBF996ED280A02219D
:1020A0002046B7EEC00A00F0EFF96349204600F081
:1020B000CFF96249204600F0CBF9614B61490A2211
:1020C00018680023B0FBF1F1204600F0F1F95E49F9
:1020D000204600F0BDF95D4B9D68AA0708D51A6B34
:1020E00020465B4B9A420CBF5A495B4900F0C8F945
:1020F0006F0703D55949204600F0C2F92E0703D5D2
:102100005749204600F0BCF9E80603D5554920465A
:1021100000F0B6F9A90603D55349204600F0B0F9FE
:102120006A0603D55149204600F0AAF92B0603D5CB
:102130004F49204600F0A4F915F4807500F0E780BF
:1021400020464C4900F09CF9404A20464A49936891
:1021500023F48073936000F093F94849204600F01F
:102160008FF9474B07221A64464A936B43F04003AA
:102170009363BFF34F8F30BFFDE7AB0701D54249F3
:1021800027E72F0701D5414923E7E80601D5404954
:102190001FE7A9067FF520AF3E491AE73E4B9A425A
:1021A000FFF446AF20339A42BFF442AF3B493CE7CD
:1021B000AF0501D53A4942E7680501D539493EE7FF
:1021C000290501D538493AE7EA0401D5374936E708
:1021D000AB047FF537AF364931E7A90301D535495F
:1021E00040E76A0301D534493CE72B0368D53349FE
:1021F00038E700BF00FF2720F4130020011400205F
:102200002A190020281400204D1400205614002004
:102210001C1500203E1500205D1500209C15002097
:10222000FC15002035170020571700203318002018
:102230003C1800207F180020A2180020A8180020B9
:10224000341E002040420F00C618002000800F40BE
:10225000F100AD0B231A00206C1A0020AD1A0020EB
:10226000D51A0020001B0020271B0020511B002036
:10227000731B0020951B0020BF1B0020E11B0020CA
:1022800000C00A4000400D407F140020A11400202F
:10229000CB140020F1140020002F0120BA150020DB
:1022A0001D1600204A1600208F160020CF16002091
:1022B000031700207B170020AE170020D71700203F
:1022C000EF0101D53349CDE6AD017FF5CEAE324900
:1022D000C8E669007FF5DDAE3049D7E620463049D3
:1022E00000F0CEF820462F4900F0CAF820462E49CB
:1022F00000F0C6F820462D4900F0C2F820462C49CF
:1023000000F0BEF82B49204600F0BAF8E3E62A4F69
:10231000D7F8C030CBB3D7F8DC601C21274800F0D9
:102320008FF8864231D1DFF8A080DFF8A090DFF887
:102330008CA00123D7F8C0202E46AB4001351342B4
:1023400021D04146204600F083F829460AEB860654
:10235000204600F089F84946204600F079F800232D
:102360000A227168204600F0A3F81549204600F0C3
:102370006FF8716800231022204600F099F8114987
:10238000204600F07DF8062DD3D1FFF78FFD012008
:10239000BDE8F087EE170020171800206318002012
:1023A000CB180020E31800202C19002076190020FB
:1023B0009B190020E319002000FF2720C0FF2720E1
:1023C000331C0020E1190020241C00209C18002050
:1023D00008B5FFF741FD003818BF012008BD00BF58
:1023E0000F4BDA6E42F44032DA66DA6E42F4407233
:1023F000DA66A3F5603340F237625A64A0229A6429
:102400009A6C1206FCD4074A40F237635364A02347
:102410009364936C13F08003FBD1034A13707047ED
:1024200000C00F4000800C40A62A0120F8B500BF74
:10243000F8BC08BC9E4670475FF800F0C9F0000089
:102440005FF800F0D5C900005FF800F091BB000014
:102450005FF800F0BFC900005FF800F01FCA00007D
:102460005FF800F045C700005FF800F023CB0000E4
:102470005FF800F02D5900005FF800F089C90000F6
:102480005FF800F0C3C900005FF800F031CC000035
:102490005FF800F039AE00005FF800F001C2000004
:1024A0005FF800F035CB00005FF800F0F5A5000004
:1024B0005FF800F087CB00005FF800F00DC400006B
:1024C000450000008D060000310C0000C136000000
:0424D0001D54000097
:1024D40000F03F000F4B22F0604221F0604140F4D5
:1024E40089101867C3F88010C3F890201A6F22F47B
:1024F40080521A671A6F002AFCDAD3F8702122F48A
:10250400000222F40042C3F870211A6F22F48032D0
:102514001A67704700800D4080C00F400000000320
:102524001900000010000000E8841F4001000000B2
:10253400FF000000FF000000000000000000000099
:102544001800000010000000E4841F400100000097
:10255400FF000000FF000000000000000000000079
:102564001F0000002159000070C00F40000C000043
:102574001100000011000000E0841F400200000070
:102584002C00000012000000E0841F400100000045
:102594001000000011000000DC841F400200000055
:1025A4002D00000012000000DC841F400100000028
:1025B4001E0000001559000070C00F40C00000004C
:1025C4001200000013000000D0841F40010000002E
:1025D400FF000000FF0000000000000000000000F9
:1025E4001300000013000000CC841F400100000011
:1025F400FF000000FF0000000000000000000000D9
:102604001C0000000959000008034D00540050004C
:1026140020035400650065006E00730079002000FB
:102624004D005400500020004400690073006B000A
:1026340018035400650065006E007300790064009F
:10264400750069006E006F00040309040902690043
:10265400030100C032080B00020202010009040059
:1026640000010202010005240010010524010101FA
:102674000424020605240600010705820310001045
:1026840009040100020A00000007050302400000DB
:10269400070583024000000904020003060101004B
:1026A40007058402400000070504024000000705F6
:1026B400850320000A09026900030100C032080BE7
:1026C40000020202010009040000010202010005E7
:1026D4002400100105240101010424020605240636
:1026E40000010705820310000509040100020A0025
:1026F4000000070503020002000705830200020030
:102704000904020003060101040705840200020013
:1027140007050402000200070585032000070A06D6
:082724000002EF020140010078
:10272C00000000000000000000000000000000009D
:10273C00000000000000000000000000000000008D
:10274C000548064B1B1AD90F01EBA301491002D007
:10275C00034B03B118477047C02A0020C02A002041
:10276C000000000008B5054B1BB105490548AFF347
:10277C000080BDE80840FFF7E3BF00BF0000000089
:10278C002C21012000840160002070477047034613
:10279C0007B5806C48B101220DF1070107F042FA30
:1027AC00012804D19DF8070003E0D86C20B94FF044
:1027BC00FF3003B05DF804FB01220DF1070105F0B9
:1027CC0017FFEDE70346806C08B107F0E6BAD86C4A
:1027DC0008B105F0C9BF4FF0FF307047836C10B5DE
:1027EC0053B1187810F0080005D0D8695B69C01A8D
:1027FC0048BF6FF0004010BDC06C0028FBD090F8B3
:10280C00313013F008030ED0D0E90413D0E90024C2
:10281C00881A63EB0403B0F1004F73F1000328BF77
:10282C006FF00040E7E71846F5E70346806C08B107
:10283C0007F006BCD86C08B106F0BCBD70470000B0
:10284C0008B50CF063FB0A4B1B7803F0FF006BB16F
:10285C00084B187810F0010008D0074B1868074B8C
:10286C001B68C01A0E2894BF0020012008BD00BFB1
:10287C00D12E0120D02E0120682801207C28012097
:10288C0000230A220CF00FBD70B505460C4651B161
:10289C0008460FF02DF82B680246214628465B6847
:1028AC00BDE87040184770BDFFF7EEBF10B5044689
:1028BC00FFF7EAFF2046BDE810400CF0CBBC00004F
:1028CC0038B50C4B04460C4D036000F5AC7040F869
:1028DC00105C08F0DBFC04F58470C4F8F85008F0C8
:1028EC00D5FC04F1B800C4F8A85008F0CFFC204681
:1028FC0038BD00BFA00500207C0500200346806B7E
:10290C0008B107F00BBED86B08B106F0FDBE7047DE
:10291C0008B51030FFF7F2FF08BD07B501228DF89E
:10292C0007100DF107011030FFF7E8FF03B05DF859
:10293C0004FB0000094B0022642010B5084CC3F8BE
:10294C0040210BF0B5FC12F0FFF8FFF779FF00B156
:10295C0010BD204604F054FDF7E700BF00002E40E8
:10296C00002B00204FF0E023014AC3F80C2D7047D8
:10297C000400FA05074B5A6E42F400325A665A6D3F
:10298C0022F023025A655A6D42F001025A65BFF3D8
:10299C004F8F704700C00F402DE9F04F6A4E8BB03F
:1029AC006A4D33686A4C0133336002F01FFC2B888C
:1029BC00684A8342136838BF288013F0010F09D18D
:1029CC00654B1B68012B4FF0FF3318BF002323808E
:1029DC0001231360208800B202F026FA208023889D
:1029EC001B0402D55D4804F00BFD23881BB2002BA1
:1029FC0003DD5B4B0822C3F88420208800B203F06F
:102A0C0079F9208023881BB2002B03DD544B08225C
:102A1C00C3F88820534B544FD3F800803B6803F520
:102A2C007A7343456FD2514BDFF87CB1B3F9003068
:102A3C00DFF878A1DFF87891002B59D008A803F0C3
:102A4C0052FE9DF92430BDF9202004939DF92730C6
:102A5C00474903939DF92630464802939DF925304A
:102A6C0001939DF9233000939DF922300CF00EFC5C
:102A7C0041494048FFF718FF31683E48FFF700FF17
:102A8C003E493C48FFF710FFDBF800103948FFF7D0
:102A9C00F7FE3A493748FFF707FFDAF800103548D8
:102AAC00FFF7EEFE35493348FFF7FEFE2A8834491E
:102ABC0030480CF0EBFB33492E48FFF7F5FED9F804
:102ACC0000102C48FFF7DCFE2F492A48FFF7ECFEDC
:102ADC002E4B1C8824B2D4B92D4B2E4953F82420EC
:102AEC00013424480CF0D2FB082C2A49284BF5D190
:102AFC000023C7F800803360CBF80030CAF80030F0
:102B0C002B80C9F8003030BF0BB0BDE8F08F224BE2
:102B1C000024224953F8042B0134164807930CF077
:102B2C00B5FB182C1D49079BF4D11D4C1D4922687F
:102B3C0010480CF0ABFB6022002117480AF0EAF8B1
:102B4C0000232360D4E700BF341D0120A8280120F6
:102B5C00AA280120BC82002070280120002B002014
:102B6C000040004268280120301D0120B6280120B9
:102B7C00FD0E0020381E00201E0F0020270F002005
:102B8C00220F0020260F0020290F0020B82801203A
:102B9C00002101202E0F00204C210120330F00209A
:102BAC0020210120380F0020442101204821012040
:102BBC008820012010B50B4C0B490C48FFF776FE12
:102BCC0023685BB100F01CFB00F05CFB03F00CFB1A
:102BDC0007490648BDE81040FFF768BE01200BF01E
:102BEC0067FBEDE7A82601203C0F0020381E0020D3
:102BFC00430F002070B50546D0F88C0480B9002630
:102C0C00D5F8800440B307F0B9FE0446A6B1D5F858
:102C1C008C0480B1036800215B6C984760B90AE0B2
:102C2C000368DB6B98470028E9D0D5F88C0428B9E9
:102C3C00D5F88C0440B90024204670BD03681B6C89
:102C4C0098470028DBD1F3E7036801215B6C9847B8
:102C5C0006460028D4D1EEE7D5F884040028D4D059
:102C6C0006F086F9D1E700002DE9F341454CFF232E
:102C7C000021454E04F5926584F8BC3484F8C814E0
:102C8C00284609F013FD2846C4F88C5409F08CF83A
:102C9C00002850D10123D4F88C1420461A4608F091
:102CAC00A3FB002847D0394B5A68132A51DDD4F8BE
:102CBC008034002B57D0DD69013D3248FFF79AFF75
:102CCC00D4F880340746002B54D09B794FF4007411
:102CDC009C40A4B233684FF00A08002600220093EF
:102CEC00FE232B492B480CF0D1FA2B492948FFF72E
:102CFC00DBFD2A4633462748CDE900860CF0DDFA89
:102D0C0026492448FFF7D0FD3A4633462148CDE901
:102D1C0000860CF0D2FA22491E48FFF7C5FD24FAB2
:102D2C0008F11C48FFF7ACFD1E491A4802B0BDE87B
:102D3C00F041FFF7BBBD336800221B490093FE2313
:102D4C0014480CF0A3FA134802B0BDE8F0410CF0A3
:102D5C0081BA03EB820130688860511C596003EB27
:102D6C0082039C65A3E7D4F88454002DA5D0D5F834
:102D7C003054A2E7D4F88444002CABD0D4F83C44B3
:102D8C00A8E700BFD8210120E8230020AC260120B1
:102D9C007A0F0020381E0020910F0020A40F002075
:102DAC00B50F0020C40F00204F0F002070B5304B22
:102DBC000024304D4FF47A722F4E2B6028462F4B47
:102DCC00C5F8B020C5F8A830C5F8F830C5F84831BA
:102DDC006FF001032A496C60C5F8AC4085F8B4402B
:102DEC0085F8044185F85441C5F8A041A5F8AC41DB
:102DFC00C5E93F42C5E953423246C5E96934C5E9E4
:102E0C003C44C5E95044C5E96444C5E966440CF04A
:102E1C0037FB1C4B1C4A20461D6003F500531B4915
:102E2C00C3F8204483F82444C3F82844184BC3F84F
:102E3C009024184AC3F88044C3F8A4240722C3F88A
:102E4C008444C3F8A8242922C3F88C4483F8AD2405
:102E5C00114AA3F8984483F8B144C3F89C24324631
:102E6C0083F8B84483F8C844BDE870400CF008BB44
:102E7C00A0050020AC26012010220020A406002072
:102E8C00A1010000002B0020EC0600206D000000CA
:102E9C00D821012000093D000C060020F0B5424D60
:102EAC0087B0424840F2EE270AF056FB404E2C68A1
:102EBC00FFF7C6FC30B92B6832781B1BAAB1B3F5EF
:102ECC00FA6F14D901F03CFD03880446012B11D094
:102EDC0042F20F762B68B34218D8FFF7B1FC0028EA
:102EEC00F8D0344B01221A6010E0BB42E9E70CF039
:102EFC000DF8DDE7304B314A1B8812889BB292B239
:102F0C0093422C4A34BF0023012313602C492D48D3
:102F1C00FFF7CAFC21882B480CF093F929480CF0D8
:102F2C0099F9294811F024FE18B12649264811F0C8
:102F3C0007FE04A803F0D7FB18B924492148FFF772
:102F4C00B5FC9DF917300124BDF9102003939DF9B0
:102F5C0016301F4902939DF915301A4801939DF9BB
:102F6C00133000939DF912300CF090F915480CF0C9
:102F7C0071F903F017F9FFF7FDFCFFF775FE154922
:102F8C001048FFF793FC02F043FF134B13490D4815
:102F9C001C60FFF78BFCFFF70DFE21460D200BF09C
:102FAC003FFD07B0F0BD00BF6828012000366E0160
:102FBC00D12E0120702801205C290120FE23002045
:102FCC00CB0F0020381E00202C1E0020D80F002014
:102FDC00ED0F002014100020A82601202010002046
:102FEC0010B504460CF048F8204610BD38B5254BFA
:102FFC001A6811691A79244BDA77244AA2F500630E
:10300C00914238BF134603F50060BFF34F8F03F1B5
:10301C00200219464FF0E02482428CBF012240224C
:10302C0003EB4212C4F85C1F20319142FAD1BFF37A
:10303C004F8FBFF36F8F1649164C0A68164D01322D
:10304C000A602988103353F8082C09B2984242FAC6
:10305C0001F244F8042BF4D1104A13881BB243B983
:10306C000C4802F0D7F818B90D4A136801331360F5
:10307C0038BD13881BB2012BFAD1064802F026FF8B
:10308C00F1E700BFCC14012000800E400008202086
:10309C0044210120881E0120FA230020B828012099
:1030AC0048210120000000002DE9F043DFF84481A5
:1030BC00052204464C49D8F8003040465B682DED9B
:1030CC00028B83B098474FF4807140460CF0B9F8EE
:1030DC0040460CF0BFF81A232102444801330A463B
:1030EC00002500FB03FC2E4601359CFBF2F707F193
:1030FC000109B9F1400F05DD092D0A44F3D1362B36
:10310C00ECD1082622463A493A4807F03F07B60167
:10311C00CDE900590CF0BAF807EE904AD8F8003017
:10312C000322B8EEE77B34495B6806F4E07631485D
:10313C009FED276B27EE067B06EE905AB8EEE66BFA
:10314C0027EE067B06EE909AB8EEE66B27EE067B32
:10315C009FED216B87EE068B984702212548B0EE38
:10316C00480B0CF0F5F823480CF074F8FDEEC87B16
:10317C0042F2107217EE900A02FB00F307EE103ABF
:10318C009FED176BB8EEC77B98EE067BFDEEC77B09
:10319C0017EE901A11F0E8FC184AD36923F4406337
:1031AC0043F40063D361936A6FF308033B433343E7
:1031BC009362A2F5A022536823F4002323F00703A3
:1031CC0043F40023536003B0BDEC028BBDE8F083E5
:1031DC0000000000000070400000000060E3764139
:1031EC00000000000088C3403010002000366E0143
:1031FC0036100020381E00205310002000C00F4055
:10320C00194AD36F10B543F44023184CD367D4F844
:10321C008830002B27DB164B1868FFF745FF154B42
:10322C000322C3F82021C3F82821C3F82421C3F8B2
:10323C007C210222C3F894250023C4F8E030042337
:10324C00C4F88C304FF0A063C4F890304FF4803346
:10325C00C4F89430084BC4F89830084BC4F89C3030
:10326C00074BC4F8883010BD00C00F4000403840F8
:10327C00DC23002000801F401B000300001F1F1FC9
:10328C000100009210B5204C012120460BF0A6FE47
:10329C0023681E4A1E491A6004221E489A8218612D
:1032AC001D48C3E901124FF480620021DA82A2F5B5
:1032BC00A052D9609A61DA8A92B2DA8306229A8392
:1032CC002379164A9B0003F1804303F56C231960A4
:1032DC001A602379124A03F1100142F821005A11A5
:1032EC0003F01F00012102F1382203F160438140F9
:1032FC00403203F564439200116060221A70094B4E
:10330C002279DA7610BD00BFCC140120A0403840E1
:10331C000000020200002020CD08000013000080F5
:10332C000028002000800E4010B5084CD4F88830DE
:10333C0023F01043C4F88830FFF7B6FED4F8883079
:10334C0043F01043C4F8883010BD00BF0040384033
:10335C0010B5064C002120460BF040FE2046044AD6
:10336C000449BDE810400CF08BB800BFCC14012010
:10337C0010220020C10800004368132B10B505DC97
:10338C0000EB83040133A2604360A16510BD40686B
:10339C00704700EB81008068704700207047012067
:1033AC00704730B40446806B114618B13BB930BC41
:1033BC0006F025BDE06B10B130BC05F0EAB930BCAD
:1033CC00704710B4002403460C70806B18B15DF884
:1033DC00044B06F07FBBD86B18B15DF8044B04F0BE
:1033EC00E5BF5DF8044B70470346806B08B106F0EF
:1033FC00DEBED86B08B105F087B8704710B504462F
:10340C0000230A220BF04FFF2046BDE810400BF0C2
:10341C0021BF70B505460C4651B108460EF068FA4E
:10342C002B680246214628465B68BDE87040184769
:10343C0070BD10B50446FFF7ECFF2046BDE8104008
:10344C000BF008BF38B50B4C05460B492046FFF76F
:10345C00E0FF0A492046FFF7DCFF2E200AF002F8B5
:10346C00294620460BF0EDFE2046BDE838400BF017
:10347C00F1BE00BF381E0020571000206210002043
:10348C00D0F880342BB19B794FF40070984080B207
:10349C007047D0F8840408B1D0F83C047047D0F8D9
:1034AC00803413B1D86901387047D0F8840408B15E
:1034BC00D0F83004704700EB810038B5856D284694
:1034CC00FFF7EDFF04462846FFF7DAFFA4FB0001E7
:1034DC0038BDD0F8803430B515468FB08BB1002292
:1034EC0003F589646846134600920A46214606F0A5
:1034FC00EDFD20B12A462146684606F047FF0FB085
:10350C0030BDD0F8844444B104F589640A46684659
:10351C000C93214605F052FB08B90020EFE72A4630
:10352C002146684606F040F80028F6D0E7E7836BA2
:10353C0010B553B1187810F0080005D0D8695B6944
:10354C00C01A48BF6FF0004010BDC06B0028FBD004
:10355C0090F8313013F008030ED0D0E90413D0E901
:10356C000024881A63EB0403B0F1004F73F10003DD
:10357C0028BF6FF00040E7E71846F5E7836B33B1DF
:10358C001B7813F0700F14BF012000207047C06B24
:10359C000028FBD090F8313013F0500FF3E7836B19
:1035AC0023B9C06B003818BF012070470120704749
:1035BC0038B500F1B80504462846FFF7F0FF10B106
:1035CC00284607F063FE002384F8AC31C4F8A83118
:1035DC0038BD0346806B08B106F024BBD86B08B12C
:1035EC0005F006B84FF0FF30704708B500F5847051
:1035FC00FFF784F908BD000000224FF47A710273C2
:10360C00C0E90121C0E91222014A0260704700BFE3
:10361C00A4060020044B10B5044640F8103B07F0FC
:10362C0035FE204610BD00BF7C05002000EB81005C
:10363C00436DD3F8801400B58FB051B1002301F560
:10364C00896168460093012306F04EFE0FB05DF8C9
:10365C0004FBD3F884040028F8D00C91012300F566
:10366C008961684605F041FFF0E7000070B505463A
:10367C000E468EB0114605EB860514481446FFF72E
:10368C00D8FE6B6DD3F8801461B1002322466846D6
:10369C000093012306F069FD10B1684607F09AFD0E
:1036AC000EB070BDD3F8840438B10C9101230146DF
:1036BC002246684605F0E5FA08B90020F0E76846AE
:1036CC0005F09DFD0028F8D0EAE700BF381E002069
:1036DC0000EB8100436DD3F8801400B58FB059B165
:1036EC0000236846009306F040FD10B1684606F0D2
:1036FC00D6FB0FB05DF804FBD3F8840430B10B4655
:10370C000C910146684605F0BCFA08B90020F0E7B8
:10371C00684605F0BAFD0028F8D0EAE730B500F1AC
:10372C00B80595B004462846FFF739FF10BB124A7E
:10373C0040F20223A16D684607F0C0FE019B04A96C
:10374C002846C4F8AC30029BC4F8B0309DF80C305D
:10375C0084F8B43007F0B0FD6846FFF75BFF2846ED
:10376C00FFF71DFF30B90549054815B0BDE83040DD
:10377C00FFF75FBE15B030BD6E1000207C1000202E
:10378C00381E002010B50446B830FFF708FF78B19A
:10379C00236820461B6C98470023204684F8AD31E3
:1037AC006FF00103C4F8A431BDE81040FFF7B6BFB9
:1037BC0010BDF8B504460E464FF48C771546B83458
:1037CC00FFF7ACFF07FB06F200232046FFF7E9FDED
:1037DC003A4629462046FFF791F8F8BD10B5D0F8C7
:1037EC00A8410A46611CC0F8A8112146FFF7E1FF69
:1037FC00204610BD0123164A0021F0B50446C7B07F
:10380C00043080F8A831FFF731FF002563684FF0D2
:10381C00FF36104FC4F89831C4F8A851D4F8983139
:10382C009D4201DB47B0F0BD0023394606A8ADF838
:10383C000E5000960135CDE901330123ADF80C3063
:10384C000DF0F9FF69462046FFF7C8FFE6E700BF19
:10385C006E100020C4120020F8B54FF48C770C4683
:10386C00164600213A46054609F054FAD4F8A83118
:10387C00B3420ED32046B834FFF750FF07FB06F2D5
:10388C0020460023FFF78DFD3A4629462046FFF7D8
:10389C00A0FE2846F8BD30B50446C7B0D4F8B051E8
:1038AC0075B12A4621466846FFF7D6FF94F8B42135
:1038BC004AB1029BC4F8B0319DF81830002BEDD002
:1038CC00284647B030BDD4F8B031D4F8A811013334
:1038DC008B4238BF1A46C4F8B021EDE730B5CDB0F5
:1038EC0015460A46014606A81C46FFF7B5FF0CA96B
:1038FC0028460DF0A0FF509B069A1A609DF82430C4
:10390C00002B3DD1079BBDF82A10236001F01F004E
:10391C00BDF82620519B40001A80BDF82820049049
:10392C00C1F34510C90A530A0390029102F01F011A
:10393C00C2F3431203F2BC730191202100925298FE
:10394C00114A0DF055FDBDF82E10BDF82C2001F0DC
:10395C001F00530A400003F2BC730490C1F34510DE
:10396C00C90A0390029102F01F01C2F3431253984B
:10397C00019120210092044A0DF03AFD4DB030BD6A
:10398C004FF0FF33BFE700BF9410002000B5C7B065
:10399C000A4601466846FFF75FFF019847B05DF89D
:1039AC0004FBD0F8403170B50446C8B0A3B3DD6950
:1039BC0004F584760DF1020269463046FFF714FDDA
:1039CC000DF1060201A93046FFF70EFD304607F057
:1039DC005DFCD4F8A421214602A8FFF73DFFBDF8F9
:1039EC00003002AAD4F8A411ADF818302046BDF866
:1039FC0002300395ADF81A30BDF80430ADF81C3028
:103A0C00BDF80630ADF81E30FFF7D3FE6FF00103A2
:103A1C00C4F8A43148B070BDD0F84451002DC7D0C3
:103A2C002D69C5E770B5C6B0064614460A46014670
:103A3C0068461D46FFF710FF00994B1C07D1104933
:103A4C0020460DF0F8FEBDF80E0046B070BD2B46BA
:103A5C0022463046FFF7E6FF20460DF049FF204492
:103A6C0010F8013C2F2B04D02A46054920460DF0B6
:103A7C0010FE2A4606A920460DF00BFEE3E700BF18
:103A8C00C4120020F0B5ADF21C4D4FF48073044607
:103A9C000D4617466A46FFF7C5FF694606461E489F
:103AAC00FFF7C7FC2A462146C0A8FFF7D5FE4FF406
:103ABC008072C6A980A80DF010FE4FF480723946B2
:103ACC00C6A80DF00AFEC0AA29462046FFF771FED3
:103ADC004FF48073294604EB86060DEB0302204657
:103AEC00FFF7A0FF40A90C48FFF7A3FCB06D40AA5C
:103AFC006946FFF7EEFC064650B94FF4807280A978
:103B0C00C6A80DF0EAFDC0AA29462046FFF751FED3
:103B1C0030460DF21C4DF0BD381E0020D0F8A431FB
:103B2C008B422DE9F0410446D4B00E46154603D124
:103B3C00D0F8A03193422BD004F584784FF48073E5
:103B4C0014AA31462046FFF76DFF07464046FFF7A3
:103B5C0026FD10B1404607F099FB04EB870714AA29
:103B6C002B466846B96D07F0A9FC019B04A9404699
:103B7C00C4F8FC30029BC4F800319DF80C3084F87A
:103B8C00043107F099FB6846FFF744FDC4E9685619
:103B9C0054B0BDE8F08170B5044616461D460022AF
:103BAC0004F58474FFF7BAFF324600232046FFF772
:103BBC00F8FB049A29462046FFF70BFD70BD2DE952
:103BCC00F041B2F1FF3F14BF90468846ADF54C7DF5
:103BDC0004460E464246014640A81F46FFF73CFEEF
:103BEC004FF48072D2998CA80DF077FDBDF80E3190
:103BFC00419A86A9ADF826320023204688928793F5
:103C0C00CDF818828DF82472CDE98A3301238DF812
:103C1C002532FFF7E3FD40AA054641904146204678
:103C2C00FFF7C7FD87B16A4629464FF480732046DB
:103C3C00FFF7F8FE6A463146201DFFF7F7FC2846D1
:103C4C000DF54C7DBDE8F08140F20222294620465C
:103C5C00FFF764FFF3E790F8AC310BB9FFF7CABD7F
:103C6C0070472DE9F043B2F1FF3F14BF17460F46E2
:103C7C00ADF50D7D014604463A466846FFF7ECFD6E
:103C8C009DF80C30002B7BD09DF80D50002D77D17A
:103C9C0004F5847820462A463946FFF73FFF404614
:103CAC00FFF77DFC00286BD0A94646A804F5AC763E
:103CBC00FFF7A2FC002241464AA807F067FB479B8E
:103CCC004AA93046C4F84C31489BC4F850319DF891
:103CDC00243184F8543107F0EFFA46A8FFF79AFC28
:103CEC003046FFF75CFC002841D0BDF80E30304662
:103CFC004697ADF826314895FFF740FC8DF8240126
:103D0C0048BBD4F8903103B3DB694FF480724CA9F3
:103D1C00304647938DF82591FFF753FB30460DF550
:103D2C0095724AA9FFF760FBD4F89001A8B10DF584
:103D3C0097724BA906F04BFA46A92046FFF74EFDA9
:103D4C000546304607F0A2FAAFE7D4F89431002BC1
:103D5C00DBD01B69D9E70023D7E7D4F894010028FE
:103D6C00EAD00DF597724BA904F0DEFBE4E70123D2
:103D7C006A46394620468DF80D300195FFF719FD3E
:103D8C000DF50D7DBDE8F08330B5B2F1FF3F14BFEA
:103D9C0015460D46C7B004462A46FFF762FF0123BD
:103DAC002A46214684F8B4316846FFF755FD019B3D
:103DBC00C4F8B03147B030BD70B590F8AD41054690
:103DCC000E4644B9012380F8AD31FFF744FFD5F816
:103DDC00A8319C4200D370BD22463146284601349E
:103DEC00FFF73FFFF3E770B5154604460E46FFF7A5
:103DFC0032FF35B12A4631462046BDE87040FFF708
:103E0C00C3BF31462046FFF7D7FF012384F8B451D6
:103E1C00C4F8B03170BD00002DE9F0430C46ADF58F
:103E2C007F7D00EB81010646071D002302A8896DEA
:103E3C00154607F043FB06A8FFF7A0FB002852D05D
:103E4C00DFF8B09016A8FFF7D7FB2AA8FFF7D4FB32
:103E5C00002206A92EA807F099FA2B9B2EA91AA8C6
:103E6C0017932C9B18939DF8B4308DF8643007F0A1
:103E7C0023FA1AA8FFF793FB80462AA8FFF7CAFB80
:103E8C00B8F1000F0ED12A4621463846FFF720FC28
:103E9C0016A8FFF7BFFB02A8FFF7BCFB0DF57F7D53
:103EAC00BDE8F0830DF1F8084FF480721AA8414672
:103EBC00FFF787FA7EA80DF01BFD4A4601462B46FC
:103ECC007EA8CDF800800DF093FA1AA8FFF756FBE8
:103EDC007EAA214618B13046FFF79EFFB5E738465B
:103EEC00FFF7C4FBB1E72A4621463846FFF7BEFB75
:103EFC00D1E700BFAE100020F0B5ADF2645D044612
:103F0C000D464FF4807346AAFFF78CFD2A462146D6
:103F1C0086A8FFF7A1FC46AABDF826122046FFF79B
:103F2C007BFF002386AA294620468DF83032FFF706
:103F3C0040FC869A2146CCA8FFF78EFCCD9EB5425C
:103F4C0009D1889BCCAA8699CD932046FFF731FCEA
:103F5C000DF2645DF0BD324621460DF58960FFF728
:103F6C007BFCDDF85074BD4206D1889B0DF589624F
:103F7C003146CDF85034E8E73A46214668463E468D
:103F8C00FFF76AFC4FF48C7269460DF5896008F0F6
:103F9C00E3FEE6E708B54B1C01D0FFF7ADFF0120AF
:103FAC0008BD70B500EB8101ADF50A6D05461E46E6
:103FBC00496D0023684607F081FA04A8FFF7EFFA71
:103FCC00044650B940F2B220FFF73CFA6846FFF7BE
:103FDC0021FB20460DF50A6D70BD05EB860540F200
:103FEC000223DDF8B02814A8696D07F067FA18A849
:103FFC00FFF7D5FA044658B904A807F047F940F280
:10400C00B5200024FFF71EFA14A8FFF703FBDDE729
:10401C004FF0FF3504A8FFF78AFA00280FDD4FF4A4
:10402C00006228A904A8FFF7D4FA051E07DB2A466C
:10403C0028A918A8FEF762FCB5F5006FEADA04A807
:10404C0007F024F918A807F021F9002DDCDA40F26A
:10405C00C120D6E72DE9F041ADF5AA6DB3F1FF3FD4
:10406C0014BF9846904604460A460F46014682A85D
:10407C0088AEFFF7F1FB42462146C8A8FFF7ECFBE0
:10408C009DF814520DB3BDF816123A462046013174
:10409C00FFF7E7FD9DF8143222682046003B00969E
:1040AC00BDF82E13D56A18BF01234246A8472368D2
:1040BC000546BDF82E235E6D394603462046B047B3
:1040CC0028460DF5AA6DBDE8F0814FF4807231469B
:1040DC000DF58A600DF001FBBDF82E330DF58761EF
:1040EC002046ADF84634C99BCDF83C54CDF840344D
:1040FC00ADF84454CDF83884FFF770FBC8AA0546D8
:10410C004146C9902046FFF754FB02AA39464FF4AA
:10411C00807342AF2046FFF785FC06463A46294697
:10412C004FF480732046FFF77DFC02AA034631460C
:10413C00201D0097FFF735FFC2E72DE9F043ADF2E4
:10414C006C6DB3F1FF3F14BF1F46174604460A4679
:10415C00014682A8FFF780FB3A462146C8A8BDF865
:10416C0016920025FFF778FB839E56B92046C8AA05
:10417C003946C995FFF71DFB01200DF26C6DBDE8AA
:10418C00F083324621460DF587600DF58478FFF7F4
:10419C0063FB4FF48C720DF587610DF5AA6008F086
:1041AC00DBFDBDF82E330DF5AA612046ADF85E356A
:1041BC00CDF85855CDF85075FFF710FB05464FF468
:1041CC00807302AA31462046FFF72CFC4FF4807313
:1041DC00424629462046FFF725FC9DF85C25BDF894
:1041EC005E35201DA2B119464246FFF71FFA324632
:1041FC0049462046FFF735FD2368BDF82E2331468E
:10420C00D3F8548020462B46C047DDF84064ACE719
:10421C0002AA4946CDF80080FFF7C3FEF5E72DE969
:10422C00F047DDF820900F46904619464A46064660
:10423C001D46FFF7FBF9044648B12B46424639466A
:10424C003046CDF82090BDE8F04700F007B840F2BA
:10425C00CB20FFF7F7F82046BDE8F0872DE9F041B9
:10426C000D46ADF52A7D00EB810104461F4602A8E0
:10427C000023496D164607F021F906A8FFF78FF9C0
:10428C00002859D0DFF808814FF4807231462AA8F3
:10429C000DF023FA2AA80DF02BFB2AAB184410F8CA
:1042AC00013C2F2B05D04FF4807241462AA80DF00B
:1042BC00F0F94FF48072B0996AA80DF00EFA6AA862
:1042CC000DF016FB6AAB184410F8013C2F2B05D0EF
:1042DC004FF4807241466AA80DF0DBF916A8FFF77F
:1042EC008BF9002206A91AA807F050F81AA8FFF7B4
:1042FC0056F900283AD04FF480722AA91AA8FFF771
:10430C0060F84FF480726AA91AA8FFF75AF81AA835
:10431C00FFF734F96AAB2AAA294600933B4688B1C9
:10432C002046FFF77CFFE8B940F2E220FFF78AF85D
:10433C0016A8FFF76FF903E040F2CE20FFF782F8E2
:10434C0000241CE02046FFF72CFE10B940F2E620BA
:10435C00ECE72AAA29462046FFF788F910B940F263
:10436C00E720E3E716A8FFF755F98DE716A8FFF746
:10437C0051F9204632462946FFF7AAF9044602A80D
:10438C00FFF748F920460DF52A7DBDE8F08100BF06
:10439C00C41200202DE9F041ADF6C82DB3F1FF3F5A
:1043AC0014BF1F46174604460A460D460146C8A8C8
:1043BC00FFF752FA3A4621460DF58760FFF74CFAA3
:1043CC00C89A21460DF5AA60FFF746FA9DF82C33E2
:1043DC006BB19DF82D3353B92A46BDF82E132046E8
:1043EC00FFF73FFCC8AA29462046FFF7E2F94FF435
:1043FC008C72C8A90DF5CD6008F0AEFC4FF48C7230
:10440C000DF587610DF5F06008F0A6FC4FF4807394
:10441C0048AA29462046FFF705FBDDF85465AE4255
:10442C004DD1CA9B4FF0FF360DF5AA62C8992046B4
:10443C00CDF85435FFF7BDF9BDF84634C8AA294666
:10444C002046ADF82E33DDF83C34C897CA93CDF82E
:10445C003C54FFF7AEF90DF5876239462046FFF75D
:10446C00A8F94FF48073294688AA2046FFF7DAFA98
:10447C00BDF87616BDF88E37994250D104EB810306
:10448C0088AA48A9986DFFF724F8002859D140F262
:10449C004320FEF7D7FF0DF6980231462046FFF772
:1044AC0088F90DF5CD6229462046FFF782F92046A2
:1044BC000DF5F0623946FFF77CF9002042E03246F8
:1044CC00214602A8FFF7C8F94FF48C7202A90DF52A
:1044DC001B6008F041FC4FF48C720DF51B610DF65E
:1044EC00980008F039FCDDF8B889A84509D1CA9BB9
:1044FC000DF51B6231462046CDF8B839FFF759F956
:10450C009AE74246214602A84646FFF7A5F94FF422
:10451C008C7202A90DF51B6008F01EFCDBE79DF800
:10452C00742604F10408A2B988AA4046009248AA4D
:10453C00FFF737FD50B148AABDF88E174046FFF77C
:10454C0095F801200DF6C82DBDE8F08140F247200A
:10455C009FE788AA4046009248AAFFF760FE002811
:10456C00EFD140F24B2094E770B500EB81050F4C76
:10457C00A86DFEF794FF01462046FEF73FFFA86D9D
:10458C00FEF738FB01462046FEF738FFAE6D30468D
:10459C00FEF785FF04463046FEF72CFB241AA86D67
:1045AC00FEF76EFFA4FB000170BD00BF381E00209B
:1045BC0010B504460AF045FE2046BDE810400AF04E
:1045CC0049BE03681B68184770B505460C4651B1C7
:1045DC0008460DF08DF92B680246214628465B688B
:1045EC00BDE87040184770BDFFF7EEBF10B504462C
:1045FC00FFF7EAFF2046BDE810400AF02BBE000092
:10460C0038B508F021FE0028FBD0094C41F2883364
:10461C00084D0D212246AB60284628230AF0AEFD3A
:10462C000023214623542846FFF7E0FF204638BDDF
:10463C007C2A0120381E002013B50446FFF7E0FF4A
:10464C0001AA03490CF02CFF019B238002B010BD82
:10465C001B0F002010B588B008F0F6FD0028FBD029
:10466C0008F02CFEC0B236280CD82F2801D808B080
:10467C0010BD3138052800F2A680DFE800F0989ACA
:10468C009C9EA0A26138C3B2162BF0D81628EED887
:10469C0001A353F820F000BF292000004F1F000099
:1046AC0071200000D51F00004F1F00003D200000AE
:1046BC00752000004F1F00004F1F00004F1F00000F
:1046CC004F1F00004F1F00004F1F00004F1F000026
:1046DC00352000004F1F00004F1F00003920000044
:1046EC005B200000FF1F00004F1F00004F1F000049
:1046FC008B200000FFF784FF07AB05AA3349029318
:10470C000DF11303019306AB00930DF112030CF0A2
:10471C00C7FE0598DDE9061201F0F5FFA7E7FFF7E4
:10472C006FFF07AB05AA294902930DF113030193FF
:10473C0006AB00930DF112030CF0B2FE0598DDE907
:10474C00061201F0F2FF92E7214808B0BDE81040D4
:10475C00FFF772BF1F48F8E71F48F6E7FFF750FF57
:10476C0007AA1E490CF09CFE1D4B079A1A6018688C
:10477C0008B0BDE81040FEF7D7BD1A4C2046FFF735
:10478C005BFF23881B047FF572AF002323806EE749
:10479C001548DAE7154C2046FFF74EFF208840B24B
:1047AC0008B0BDE8104001F0F3BD1148CDE7114849
:1047BC00CBE71148C9E71148C7E71148C5E71148CD
:1047CC00C3E71148C1E71148BFE700BFB410002090
:1047DC00FC230020FE2300205C2901201B0F00205D
:1047EC00DC230020FA230020B8280120F02300202D
:1047FC0088280120B4280120F4230020F62300206F
:10480C00F8230020F2230020AE280120AC28012040
:10481C004A0000210AF04EB84A00002109F0FCBE03
:10482C001A4B4FF47A721A4810211B884380194B8B
:10483C001B888380184B1B88C380184B1B880381F3
:10484C00174B1B884381174B1B888381164B1B8886
:10485C00C381164B1B880382154B1B884382154B57
:10486C001B888382144B1B88C382144B1B6893FBDD
:10487C00F2F30383124B1B884383124B1B888383F5
:10488C00114B1B88C383FFF7C3BF00BFFC23002061
:10489C0088280120FE2300205C290120B828012053
:1048AC00FA230020B4280120F4230020F623002052
:1048BC00F8230020F2230020AE280120DC23002066
:1048CC00F0230020B0280120AC28012038B5054683
:1048DC0008F0BAFC0028FBD008F0F0FCC4B2144875
:1048EC002146FFF76EFE12480AF0B4FC772C06D175
:1048FC00FFF796FF0F490E48FFF778FE04E06D2C8A
:10490C0007D10D48FFF798FE08F09EFC60B92846C9
:10491C0038BD632C02D101F0E3FEF5E721460448D3
:10492C00FFF74FFE0549E6E708F0C8FCECE700BFCF
:10493C00381E0020BF100020B6280120CF10002008
:10494C002DE9F0473F4C1021DFF828A12046DFF875
:10495C002891FFF761FF2388DFF820E1012B3A4F04
:10496C00DFF81CC1394A3A4E3A4D3B483B4931D1EC
:10497C006388AAF80030A388A9F80030E388AEF861
:10498C000030B4F908303B80B4F90A30ACF8003090
:10499C00A3891380E389E28A3380238A2B80638A7C
:1049AC000380A38A0B802E4B1A804FF47A72238BD0
:1049BC0053432C4A1360B4F91A202B4B1A80B4F9C8
:1049CC001C202A4B1A80B4F91E20294B1A801D4832
:1049DC00BDE8F0874FF014080023AAF80080A4F873
:1049EC0002804FF03C082380A9F80080AEF800301C
:1049FC003B801027A4F80480ACF8007013800C22C4
:104A0C00E3803280E2812A80228218222381028074
:104A1C006282012267810A804BF68031A282104AA1
:104A2C00A38113800F4AE382116030220E49228346
:104A3C000A22A3830A8062830C4AE38313800C4A04
:104A4C001380C4E788280120B8280120B42801204D
:104A5C00F4230020F6230020F8230020F22300206A
:104A6C00AE280120DC230020F0230020B0280120F8
:104A7C00AC280120FC230020FE2300205C2901200F
:104A8C00FA23002010B588B008F0DEFB0028FBD01C
:104A9C0008F014FCC0B2362814D82F2806D808F019
:104AAC00D3FB002840F0778108B010BD31380528C1
:104ABC0000F2EB80DFE810F0420148014E01540196
:104ACC005A0160016138C3B2162BE8D81628E6D813
:104ADC0001A353F820F000BFAD2500007F23000098
:104AEC0005260000772500007F230000DB25000051
:104AFC00112600007F2300007F2300007F2300008D
:104B0C007F2300007F2300007F2300007F23000011
:104B1C00C3250000152400007F230000CF250000D2
:104B2C00F5250000952500007F2300007F23000061
:104B3C006526000099480AF08DFB99499748FFF7C4
:104B4C0055FD06A801F0CFFD9DF91C30BDF91820CC
:104B5C0004939DF91F30934903939DF91E308F48A0
:104B6C0002939DF91D3001939DF91B3000939DF923
:104B7C001A300AF08BFB01F0B4FD01468748FFF7B1
:104B8C0035FD89498548FFF72FFD884B8348196807
:104B9C000AF057FB81480AF05DFB85497F48FFF717
:104BAC0023FD844B7D48198809B2FFF701FD82492A
:104BBC007A48FFF719FD814B7848198809B2FFF73D
:104BCC00F7FC7F497548FFF70FFD7E4B734819883A
:104BDC0009B2FFF7EDFC7C497048FFF705FD7B4BF4
:104BEC006E48198889B2FFF7E3FC79496B48FFF7E7
:104BFC00FBFC784B6948198889B2FFF7D9FC7649D8
:104C0C006648FFF7F1FC754B6448198889B2FFF7C9
:104C1C00CFFC73496148FFF7E7FC724B5F4819887A
:104C2C0089B2FFF7C5FC70495C48FFF7DDFC6F4BA0
:104C3C005A48198889B2FFF7BBFC6D495748FFF7F2
:104C4C00D3FC6C4B5548198889B2FFF7B1FC6A4903
:104C5C005248FFF7C9FC694B5048198889B2FFF7D5
:104C6C00A7FC67494D48FFF7BFFC664B4B481988BA
:104C7C0089B2FFF79DFC64494848FFF7B5FC634BCC
:104C8C004648198889B2FFF793FC61494348FFF7FE
:104C9C00ABFC604B43E006A801F025FD9DF91B30F1
:104CAC00BDF9182000935C499DF91A303B480AF075
:104CBC00EDFAF4E606A801F016FD9DF91F309DF9FA
:104CCC001D20009355499DF91E30EFE73E493348AE
:104CDC00FFF78AFC3D4B198889B23048FFF768FC16
:104CEC00DDE64F492D48FFF77FFC3A4BF3E73A4995
:104CFC002A48FFF779FC394BEDE72B492748FFF79A
:104D0C0073FC2A4B254819680AF09BFA23480AF0D1
:104D1C00A1FAC4E626492148FFF766FC254B198801
:104D2C0009B2DAE724491D48FFF75EFC234BF6E78E
:104D3C0023491A48FFF758FC224BF0E7284917483B
:104D4C00FFF752FC274BC6E727491448FFF74CFCEA
:104D5C00264BC0E726491148FFF746FC254BBAE71E
:104D6C0025490E48FFF740FC244BB4E724490B4877
:104D7C00FFF73AFC234BAEE723490848FFF734FC16
:104D8C00224BA8E7FFF7DCFD044626490348FFF752
:104D9C002BFC2188A1E708F091FA80E6381E002050
:104DAC00C80D0020DF10002005110020DC2300209E
:104DBC0012110020FA2300201F110020B828012016
:104DCC002C110020F023002039110020FC2300209E
:104DDC0046110020FE230020531100205C290120E5
:104DEC0060110020B42801206D110020F423002054
:104DFC007A110020F623002087110020F8230020D0
:104E0C0094110020F2230020A1110020AE280120D3
:104E1C00AE110020AC280120BB110020D5110020C0
:104E2C00F0110020FD11002038B5044608F00CFAF2
:104E3C00002874D008F042FAC1B265293FD013D8CB
:104E4C003F295CD00BD821295CD03A2952D0354867
:104E5C00FFF7B7FB34493348FFF7C8FB2DE0622955
:104E6C00F5D1FDF77FFD28E0A1F16D03DAB20B2A35
:104E7C00EDD80B2BEBD801A252F823F0AB27000096
:104E8C002F2700002F2700002F2700002F270000BE
:104E9C00C92700008D2700002F2700002F270000B6
:104EAC002F2700002F270000CF27000000241F49C8
:104EBC001C48FFF799FB01F089FA1A4D2BE01C49AD
:104ECC0005241848FFF790FBF7E71A4D1A492B8871
:104EDC001448C3F101032B80FFF786FBB5F90010D2
:104EEC0010480AF0AEF9E8E7FDF724FDE5E700F01D
:104EFC0087FDE2E72046FFF7E9FC0446DDE7FFF714
:104F0C00C1FDDAE7FFF7A6FBD7E708F0D7F9C1B286
:104F1C002846FFF756FB08F097F90028F5D12046F4
:104F2C0038BD00BF381E0020251200200B120020B7
:104F3C0013120020B62801201A12002000487047D6
:104F4C008828012007B510F8013B3D2BFBD10DF152
:104F5C00060204490CF0A4FABDF9060003B05DF892
:104F6C0004FB00BF6612002007B510F8013B3D2B77
:104F7C00FBD101AA03490CF093FA019803B05DF838
:104F8C0004FB00BF6F1C002010F8013B1F2BFBD84B
:104F9C0070470000844B1B6870B533B1834C2046BE
:104FAC000CF0A6FC2518AC4200D370BD14F8013BE4
:104FBC003B2B1FD82F2BF6D9303B0B2BF3D801A250
:104FCC0052F823F0772A0000C3290000D5290000ED
:104FDC00E7290000F92900000B2A00001D2A000017
:104FEC0087280000872800008728000087280000F9
:104FFC004F290000613BDAB2162AD4D8162BD2D82E
:10500C0001A252F823F000BF5929000087280000A4
:10501C008F29000087280000872800002F2A000015
:10502C00572A0000872800008728000087280000E6
:10503C0087280000872800008728000087280000A8
:10504C006B29000087280000872800007D290000BC
:10505C009F2900008728000087280000872800006F
:10506C00452900002046FFF76DFF514B1880204664
:10507C00FFF78AFF044696E72046FFF763FF4D4B88
:10508C0080B218804A4B5880F1E72046FFF75AFF50
:10509C00494B80B21880464B9880E8E72046FFF7D2
:1050AC0051FF464B80B21880414BD880DFE7204639
:1050BC00FFF748FF424B18803D4B1881D7E720463D
:1050CC00FFF740FF3A4B3F4A588110802046FFF7CC
:1050DC005BFF138804461B047FF565AF0023138028
:1050EC0061E72046FFF72EFF374B80B21880304B1C
:1050FC009881BCE72046FFF725FF344B80B218801F
:10510C002B4BD881B3E72046FFF71CFF304B80B206
:10511C001880274B1882AAE72046FFF713FF2D4B68
:10512C0080B21880224B5882A1E72046FFF70AFF75
:10513C00294B80B218801E4B988298E72046FFF7C7
:10514C0001FF264B80B21880194BD8828FE7244E72
:10515C002046FFF709FF30602046FFF715FF044695
:10516C003068FEF7E1F84FF47A72336893FBF2F390
:10517C000F4A138317E72046FFF7E4FE194A0C4B3E
:10518C00108058832046FFF7FFFE0446108840B27B
:10519C0001F0FEF807E72046FFF7D4FE124B18800B
:1051AC00034BD88363E700BFF8200120A72A012016
:1051BC0088280120FC230020FE2300205C290120EC
:1051CC00B8280120FA230020B4280120F423002061
:1051DC00F6230020F8230020F2230020AE28012023
:1051EC00DC230020F0230020AC280120044B18689D
:1051FC00044B1B68C01A48BF00F5905080B2704732
:10520C00D8160120D4160120014B1868704700BF36
:10521C00C4B40020F8B50124124D134E4FF490572E
:10522C002C6001463368114A2344126893FBF7F053
:10523C0007FB1033934202D100202860F8BD0C4BC1
:10524C004FF40072306803EB402007F085FD3368A3
:10525C002046013393FBF7F207FB12333360002334
:10526C002B60EBE7C4B40020D8160120D416012023
:10527C000000007070B5104B0124104E104D3460BE
:10528C002A681B689A4202D10020306070BD0D4B19
:10529C004FF40072296803EB412107F05DFD2B6888
:1052AC004FF490522046013393FBF2F102FB113381
:1052BC002B6000233360E9E7D8160120C4B400202A
:1052CC00D41601200000007073B5064668460C46E3
:1052DC00154601F008FABDF800209DF90210A2F263
:1052EC00BC729DF9033092B27F2A26D8C8B20C2822
:1052FC0023D8D8B21F2820D843EA411343EA4223CB
:10530C009BB29DF80500338017289DF905109DF977
:10531C0006309DF9072012D8D8B23B280FD8D2B24C
:10532C003B2A0CD85B0143EAC12343EA52039BB2EC
:10533C00238000232B7002B070BD0023E1E7002313
:10534C00F6E70346806B08B104F07ABED86B08B15F
:10535C0004F030B8704730B40446806B114618B175
:10536C003BB930BC04F04BBDE06B10B130BC03F06A
:10537C0010BA30BC704700230A2209F094BF70B5F4
:10538C0005460C4651B108460CF0B2FA2B680246A1
:10539C00214628465B68BDE87040184770BDFFF792
:1053AC00EEBF10B50446FFF7EAFF2046BDE81040FB
:1053BC0009F050BF034607B5806B48B101220DF1CF
:1053CC00070104F02FFC012804D19DF8070003E02D
:1053DC00D86B20B94FF0FF3003B05DF804FB01220D
:1053EC000DF1070103F004F9EDE7000070B5184961
:1053FC0094B0184A00230968684606F05FF8164C0A
:10540C00019B04A904F110006360029BA3609DF84A
:10541C000C30237305F050FF6846FEF7FBF8A36CC5
:10542C000BB9E36C5BB10D4E00240D4D2846FEF715
:10543C007EF830B90A4805F029FF0A4B1C6014B0FD
:10544C0070BD28460134FFF7B5FF06F8010BEDE7F8
:10545C00E42300206A120020A8200120A72A0120A2
:10546C00B8200120F820012010B586B00D4C04A8FE
:10547C0001F039F99DF91730BDF91020204603933E
:10548C009DF91630084902939DF9153001939DF949
:10549C00133000939DF912300BF0E0FF204606B05C
:1054AC0010BD00BF2C2A012091120020F8B5314C00
:1054BC001F46314B002A1546A0612360A3F57003EB
:1054CC00B8BFD51D8EB2A3F2FB736284ED10E682D9
:1054DC00A36003F15B43684315FB06F503F5F11379
:1054EC00414304F12C0003F60F432584E161E36092
:1054FC0003F182432149A3F60243C4F8F83103F1C6
:10550C000D2303F57203053363624FF4FC73636080
:10551C00102323614FF4E673A3620023C4F8FC311B
:10552C000123A382164B1D680CF085F9FFF79CFF35
:10553C00014604F130000CF07EF93A46114904F1B1
:10554C0040000BF08BFF503444F8045CFFF7F6FC82
:10555C00034600F120051868083353F8041C224652
:10556C00AB4203C21446F6D1074908480CF063F964
:10557C000048F8BDE4180120524946467512002037
:10558C00682801207A1200207F1200205419012073
:10559C00034603484268C0F8FC311A444260704725
:1055AC00E4180120134B9A6C70B50646CAB15469C5
:1055BC00002522462B461049104809F067FE0023AF
:1055CC0000220F48FFF7C7FE4FF40072314609481E
:1055DC00FDF79EF922462B460948BDE87040FFF7BF
:1055EC00BABEDB6C13B1D3E90045E2E71C461D469D
:1055FC00DFE700BFA820012084120020381E002005
:10560C00B820012010B588B0044606A801F06BF84C
:10561C009DF91F30274A204604939DF91E302649D8
:10562C0003939DF91D3002939DF91B3001939DF955
:10563C001A300093BDF918300BF010FF142363617E
:10564C001E4B1B68A3611E4B1B68E3610123236285
:10565C001C4B1B889BB263621B4B1B889BB2A362C7
:10566C001A4B1B889BB2E362194B1B881BB223633A
:10567C00184B1B881BB26363174B1B881BB2A363AD
:10568C00164B1B881BB2E363154B1B682364FFF797
:10569C0055FC04F1500300F1200250F8041B904219
:1056AC0043F8041BF9D14FF055330120C4F8FC31F9
:1056BC0008B010BD751200208F120020B882002097
:1056CC00DC230020FC230020FE2300205C29012089
:1056DC00B8280120FA230020F0230020B028012054
:1056EC0068280120022810B5044654D108F0DEFECB
:1056FC00304B1A8892B2B0FBF2F302FB13032E4A22
:10570C00116813608B4246D22C4C2D4922880B8891
:10571C0092B29BB29A4240D82A4C2B4922880B88D1
:10572C0092B29BB29A420CD9284B2288098892B229
:10573C0089B2B0FBF3F3B3FBF2F402FB14338B42EC
:10574C0035D2224AB0FBF2F302FB13034FF4616231
:10575C00B3FBF2F31E4A128892B2934204D31D4A51
:10576C00128892B2934209D31B4A128892B2934286
:10577C001DD31A4A128892B2934218D2184B1C8825
:10578C00124BB0FBF3F044F6206303FA84F4A0420E
:10579C0034BF04240324204610BD23880A889BB2FE
:1057AC0092B2B0FBF3F103FB11039342B4D3042484
:1057BC00F1E700BFFC2300202C1D01205C290120F7
:1057CC00FE230020AE280120F2230020805101008E
:1057DC00B4280120F4230020F6230020F823002015
:1057EC00AC280120034B1A6882421ABF18600120B2
:1057FC00002070470822002010B586B0044604A88B
:10580C0000F071FF9DF915100846FFF7EBFFE0B1B2
:10581C009DF9133020460E4A02939DF912300391E4
:10582C000193BDF910300B4900930B4B1B680BF027
:10583C0015FE0A4809F00EFD09490848FFF7AFFDAF
:10584C0006482146FFF7ABFD012006B010BD00BF96
:10585C00F2130020AB120020B8820020381E00206A
:10586C001F0F0020F0B589B0044606A800F03BFFDE
:10587C001A4B9DF91F701A889DF91E609DF91D50D9
:10588C0012B29DF91B009DF91A10BDF91830009148
:10589C00CDE90367CDE90105E2B9114A114920466A
:1058AC000BF0DCFD104809F0D5FC10490E48FFF751
:1058BC0076FD21460C48FFF772FD0D490A48FFF7AB
:1058CC006EFD08F0CFFC01460748FFF754FD0120A0
:1058DC0009B0F0BD024A0749E1E700BFB828012032
:1058EC005B1C0020C6120020381E00201F0F002059
:1058FC00270F0020E6120020F0B5374D4FF46162FF
:10590C00364FB0FBF5F405FB1403B3FBF2F3344A4A
:10591C001288344A16883988B6B289B28E4213D9A5
:10592C0011883E8889B2B6B2B4FBF1F701FB17417E
:10593C00B14209D3138810889BB280B2B4FBF3F345
:10594C0003FB00006843F0BD274A118889B29942D5
:10595C0004D82649098889B2994209D8244909886A
:10596C0089B2994215D82349098889B2994210D92C
:10597C002149224D0E882D88B6B2ADB2AE4208D95F
:10598C000B889BB2B0FBF3F3088880B203FB0000DA
:10599C00D9E7118889B2994208D910881823634332
:1059AC0013FA80F04FF461635843CCE70F49098830
:1059BC0089B2994204D80E4D298889B2994209D8E6
:1059CC000C49098889B29942BDD81823108804FB68
:1059DC000333E5E72888E1E780510100F22300203A
:1059EC00AC280120AE280120B4280120F42300208B
:1059FC00F6230020F82300205C290120FE23002040
:105A0C00034A936B43F04003936330BFFDE700BF41
:105A1C0000400D40214B70B59E6BDA6C42F00102D8
:105A2C00DA64BFF34F8F9A6B22F002029A639A6B7F
:105A3C0012F00202FBD19A659A6D002AFCD172B663
:105A4C00164D2B6D6C6D696D2A6DA142F9D19A4280
:105A5C00F7D1E40B124844EA43442146FFF78BFC90
:105A6C0010490F48FFF79BFC2046FFF745FF014606
:105A7C0004460B48FFF77FFC094809F0EBFB074B8A
:105A8C00AC659A6DA242FCD146F002069E639A6BFD
:105A9C009207FCD562B6FFF7B3FF00BF00400D4084
:105AAC00381E00200613002030B5044695B000289F
:105ABC0040F082807C48FFF79FFE00284CD07B4D45
:105ACC002B68D3F88014B1B12346774A684600940A
:105ADC0004F04BFB70BB2B68D3F88014B9B9D3F826
:105AEC008404F0B10C91012300F589616E4A68467B
:105AFC0003F0FBFC14E0D3F884040028EBD00B4635
:105B0C000C91694A0146684603F0BBF8E2E70023B2
:105B1C00654A01F5896168460093012304F0E4FBB2
:105B2C0040B963496348FFF73CFC4FF0FF34204613
:105B3C0015B030BD2B68D3F8800428B15A4904F055
:105B4C00F9FF48B95C49EDE7D3F884040028F9D093
:105B5C00554903F0B9FAF4E75848FFF783FE0028DB
:105B6C00E3D0524944F20223544A6846096805F0CE
:105B7C00A5FC534C019B04A904F110006360029B2B
:105B8C00A3609DF80C30237305F096FB6846FDF777
:105B9C0041FDA36C5BB14B4B00221A604A4B1B8836
:105BAC001BB27BB34948FFF72DFD484933E0E36C4A
:105BBC00002BF0D14649B5E70128ECD0022832D0B1
:105BCC00E31E9BB2022BB2D83D4B9A6C0AB9DB6C2C
:105BDC007BB13D4B1B881BB243B93A4B4FF4405041
:105BEC001B685843FFF7D4FCFFF7DCFC394805F081
:105BFC004DFB042C4ED100F0EFFA002000F0E2FA3D
:105C0C00FFF708FF344B012110221868334B1B6837
:105C1C00FFF74CFC01464FF400722E48FCF76EFE69
:105C2C00B0F5007F34DB4FF440522D492948FCF786
:105C3C0065FEB0F5405F0446224D24D229491D482B
:105C4C00FFF7ADFB21461B480324FFF794FB2649C5
:105C5C001848FFF7A4FB0221164809F0F2FA154880
:105C6C0009F0F8FA214A1368013313604FF47A7281
:105C7C002B68B3FBF2F102FB1133002BA0D11548BA
:105C8C00FFF75FFB9CE72B68022401332B60E9E7ED
:105C9C00032495E7032C04D0154B0822C3F8882065
:105CAC0043E7002443E700BF88290120E4230020B8
:105CBC000B130020381E002017130020D8290120B8
:105CCC00A820012028210120B8280120C0B20020E2
:105CDC0023130020B8200120DC230020B8820020F0
:105CEC00C082002035130020270F002088200120BF
:105CFC0000400042431C2DE9F041044613D1FFF74C
:105D0C0083FA05460028FAD13048FFF7B3FA2F4B37
:105D1C002F4A53F8041B42F825100135082DF8D1F1
:105D2C002046BDE8F0810028FADBFFF7DBFC0446D7
:105D3C00FFF75CFA2F28F3D9264B1D882DB25DBBDB
:105D4C00224FB846FFF760FA06460028FAD1013513
:105D5C004046FFF78FFA08F50078302DF2D11B4A38
:105D6C0033461B4952F8040B41F823000133082B2E
:105D7C00F8D1194A57F8043B01361B0CB6F5C05F35
:105D8C0022F8023BF6D1154B1B68002BC8D02046DD
:105D9C00BDE8F041FFF788BE0F4E0027B046FFF775
:105DAC0033FA05460028FAD101374046FFF762FA6C
:105DBC0008F50078302FF2D1054B56F8042B43F838
:105DCC0025200135082DF8D1DDE700BFCCB400202B
:105DDC0000210120B8280120C0820020FC200120D5
:105DEC00074800234FF47A7206490373C0E9013265
:105DFC00C0E91233044B054A036009F041BB00BFF4
:105E0C00A8200120F50E0000A4060020102200207E
:105E1C002DE9F843234B0524234AD3F82032DFF82D
:105E2C00A49023F07F43DFF8A080204F1360204B19
:105E3C00204A1A60D9F80050FF23002105F592661C
:105E4C0085F8BC3485F8C814304606F02FFC304673
:105E5C00C5F88C6405F0A8FFA8B90123D5F88C14FB
:105E6C0028461A4605F0C0FA68B1134901240F48B8
:105E7C00FFF797FA114B1C60FFF7B8FAFFF78AF897
:105E8C002046BDE8F88341463846FFF78AFA64207D
:105E9C0008F00EFA013CCDD109490448FFF781FA0C
:105EAC00EEE700BF00441F40B8820020381E0020DF
:105EBC00EC1C0120A92B000037130020FC20012032
:105ECC0059130020E4230020491300202DE9F74F3B
:105EDC00044608F0EBFA009008F0C4F9984B82469F
:105EEC0000221B6854F8221043F822100132802A39
:105EFC00F8D1043C03F5FE701A4652F8041F54F80E
:105F0C00045F9042A1EB05011160F6D1002253F819
:105F1C00041F0029B8BF49428A42B8BF0A468342CF
:105F2C00F5D1012A4FF0020408DD0121234601348A
:105F3C00182C03D001FA03F39342F7DD611E814A5A
:105F4C00DFF8148252F821304046C146013342F842
:105F5C0021307F217C4B1A6894424FF0010202FAE7
:105F6C0004F288BF1C60013A50F8045F013905EA5D
:105F7C0002050560F8D1754D4FF4007201914FEA9E
:105F8C00840B284606F0C6FE4FF0A532009B0BF1A1
:105F9C0007072A600BF108066D4A07200199128841
:105FAC0044EA02426A6001222A615A44C5E9023A73
:105FBC006A612023D9F80020C9F80010AA61A3EB6C
:105FCC00040E55F8209058F8042BBEF1000F21DD7B
:105FDC0002FA0EF2734642EA090245F8202001311A
:105FEC008029ECD1DFF87481D8F8004004EB060965
:105FFC00B9F1800F26DC5748B200544900EB8400FD
:10600C0006F0AAFEC8F800904FF00109484603B00C
:10601C00BDE8F08F00F1010C06D149EA0202202301
:10602C0045F820206046DAE7E31A22FA03F343EA44
:10603C00090345F820300EF1200360469A4045F8DC
:10604C002C20CCE77A2C24DD002223464149104633
:10605C007F2B19DD3AB1802CC4F18003C8BF00231B
:10606C002344C8F800303B48FFF7D4F8B0F10009DE
:10607C004FEA86023549374818BF4FF0010906F040
:10608C006BFEC8F80060C1E741F823000122013320
:10609C00DEE76A69C4F17A032C4943EA0243DFF86C
:1060AC00B4B022466B610B4653F8040B4BF822003C
:1060BC000132802AF8D1C4F1800A26480191C8F82F
:1060CC000020A7EB0A07CDF800A0FFF7A3F86A6938
:1060DC00B0F100094FF007006FF30F0218BF4FF03B
:1060EC0001093A431B4F6A610022DDE90031C8F80F
:1060FC000020013816D112B10622C8F80020D8F8B9
:10610C00001000220BEB810B564511DC002A3FF4EA
:10611C007DAF803C34449E42B8BF00240C44C8F888
:10612C00004073E751F8042B47F8042B0122E0E7F9
:10613C0055F82A200AF1010A4BF8042B0122E3E757
:10614C00EC2300204C21012020210120E416012009
:10615C00FA230020D4140120E41A0120381D012058
:10616C0070B505460C4651B108460BF0C1FB2B68C7
:10617C000246214628465B68BDE87040184770BD52
:10618C00064B0522C3F8B4200822C3F8A422044A03
:10619C00536843F080635360704700BF00801F401A
:1061AC000080004208B5FFF7EBFF054B4FF0806213
:1061BC004FF47A70C3F88420BDE8084008F078B832
:1061CC0000800042C1B2022008B508F009FC64202E
:1061DC00BDE8084008F06CB80021032008F000BCB2
:1061EC000121032008F0FCBB2DE9F3410121022021
:1061FC0008F016FC0120FFF7E5FF0121032008F051
:10620C000FFCFFF7E9FF642008F052F8FFF7E8FFF6
:10621C00544A554901A800F00DF94C2101A800F091
:10622C001AF94C22002800F0968050490B24504853
:10623C0009F02CF8812302224C2101A84D4D00F0CD
:10624C0041F9302307224C2101A800F03BF900232F
:10625C0008224C2101A800F035F92246013415F82A
:10626C00013B4C21E4B201A800F02CF90F2CF4D125
:10627C00302373224C2101A800F024F9202374222E
:10628C004C2101A83C4E00F01DF9E02375224C2155
:10629C0001A8002500F016F9DFF8F08025236B2209
:1062AC004C2101A8354F00F00DF960233B224C2105
:1062BC0001A800F007F916F8014B88234C2101A81E
:1062CC002246013500F0FEF8B8F80030621C4C2173
:1062DC00DBB201A8D2B200F0F5F83B88A21C4C212D
:1062EC00373B01A8D2B2DBB200F0ECF8E21C802301
:1062FC004C21D2B201A800F0E5F8221D00234C215C
:10630C00D2B201A800F0DEF8042DD4D11C491848F3
:10631C00FFF726FF15224C2101A800F0ADF8002351
:10632C0001461022124808F0BEFF114808F092FFF7
:10633C0014490F48FFF714FF76224C2101A800F0F6
:10634C009BF8002301461022094808F0ACFF0848CE
:10635C0008F080FF03E00C49054808F097FF02B0F5
:10636C00BDE8F081A0860100481E002075130020B6
:10637C00381E0020C00D0020BC0D0020B0280120CC
:10638C00961300209E1300207F130020F023002082
:10639C0073B504460A4E00250A4AE4B20A4901A81C
:1063AC0000F048F816F8012B013523464C21013238
:1063BC0001A8D2B200F086F8042DF3D102B070BD62
:1063CC00BC0D0020A0860100481E002013B5144C03
:1063DC0001A8144A144900F02DF820461349FFF780
:1063EC00BFFE15224C2101A800F046F800230146FF
:1063FC001022204608F057FF20460D49FFF7B0FE4B
:10640C0076224C2101A800F037F800230146102217
:10641C00204608F048FF204608F01CFF02B010BDD3
:10642C00381E0020A0860100481E00209513002075
:10643C009D13002070B50C461646016005460846B3
:10644C000EF086FB642007F033FF2046314601F046
:10645C00FDFD284670BD08B54900036883F8A510FA
:10646C00012183F8301183F82F11006801F080FCB2
:10647C00B0FA80F0400908BD70B5036801260D46DE
:10648C00490083F83061044683F8A510114683F85F
:10649C002F61006803681B6898470021206801F091
:1064AC0067FC08B1002070BD33463246294620688F
:1064BC0001F0CEFC0028F5D0206803685B69984792
:1064CC00C0B2F0E770B5044601251E4603684800CB
:1064DC00114683F8305183F82F5183F8A5002068BA
:1064EC0003681B6898472068314603681B68984707
:1064FC002946206801F03CFCB0FA80F0400970BDE0
:10650C002DE9F0413C2440F26D184FF0640C4FF42F
:10651C00C87EB0FBF4F2B2FBF4F304FB120004FBF4
:10652C001322C87118208A71B3FBF0F200FB1233EE
:10653C00101D4B710723B0FBF3F3C3EBC303C01A5D
:10654C00087100200446C5B205F2B27313F00306BD
:10655C004BD193FBFCF70CFB1737002F48D193FB67
:10656C00FEF70EFB1737002F0CBF4FF4B7774746DB
:10657C003C440130A242E6D205F2B2750D80D6BB86
:10658C00642593FBF5F005FB1030B8BB4FF4C875D0
:10659C0093FBF5F005FB1030002840F26D1008BF9E
:1065AC004FF4B770121B1B4F02440020012828D156
:1065BC004EBB642593FBF5F405FB14342CBB4FF454
:1065CC00C87593FBF5F405FB1434002C0CBF1D248B
:1065DC001C24A2421BD30130121B0C28E6D1013023
:1065EC0001328870CA70BDE8F08140F26D17BFE7C8
:1065FC004FF4B777BCE740F26D10D3E74FF4B770A8
:10660C00D0E73C5CE5E71C24E3E71D24E1E7C0B2DE
:10661C00E5E700BFF00D0020028840F26D134E320A
:10662C00D2B22DE9F0415343002464264FF4C877CD
:10663C00A24227DC02F2B2726421274F90F902E0E9
:10664C0002F003087B43254DB2FBF1F401FB14244B
:10665C0001218E4527DC90F906204FF4616490F9F6
:10666C000510C2EB0212920004FB012290F90710F4
:10667C000A4490F903101848013900FB0120184412
:10668C00BDE8F08104F2B2718D070AD191FBF6F5E9
:10669C0006FB151525B991FBF7F507FB151101B98B
:1066AC0001330134C4E7022911D1B8F1000F0ED126
:1066BC0034B94FF4C87C92FBFCF60CFB162636B9A9
:1066CC0003F5181303F56E5301310135C1E72E782C
:1066DC0007FB0633F8E700BF80510100F00D0020E6
:1066EC0070470020704710B5044607F0DFFE2146C6
:1066FC00FFF706FF012010BD08B5FFF78DFF07F06F
:10670C00E9FE012008BD73B50D46144606466846E1
:10671C00FFF7E9FF6846ADF800608DF802508DF880
:10672C000340FFF7E9FF02B070BD73B50D46144688
:10673C0006466846FFF7D7FF68468DF805608DF86A
:10674C0006508DF80740FFF7D7FF02B070BD38B583
:10675C0004460D463C222946204608F021FB002821
:10676C00F8DD38BD2DE9F0470F4600F5005116460F
:10677C00D1F828341BB900F50872174C2260334449
:10678C004FF0000800F58469DFF84CA000F50874A0
:10679C00C1F82834464501DCBDE8F087DAF8003052
:1067AC00A6EB08023946A9EB030518469542A8BF8B
:1067BC0015462A46A84406F0CFFA03462F442B442C
:1067CC009945CAF80030E5D14FF400712046FFF727
:1067DC00BEFFCAF80040DDE7401D012070B505463C
:1067EC0000684C1E002603682146DB699847286820
:1067FC00214603681B6A984708B9304670BD0136BC
:10680C00F5E70068013A10B50468E46CA04742F261
:10681C00050242F2010300280CBF1046184610BDB9
:10682C000068013A10B40468246DA4465DF8044B6A
:10683C0060470000024B0068196003685B6C1847E6
:10684C00A426012010B50C4608F092FA0028FBD0C3
:10685C0020463C21BDE8104008F040BA00F500533A
:10686C0030B493F8245435B1D3F82814114430BC07
:10687C00C3F82814704730BCFFF774BF07B501226A
:10688C008DF807100DF10701FFF7E8FF03B05DF875
:10689C0004FB07B50222ADF806100DF10601FFF757
:1068AC00DDFF03B05DF804FB38B50C4609780546EE
:1068BC0099B12046013C0BF01BF8411C2846C9B28B
:1068CC00FFF7DCFF14F8011F284619B9BDE8384062
:1068DC00FFF7DFBFFFF7DDFFF4E7BDE83840FFF758
:1068EC00CDBF00004DF20243994202D10149FFF79E
:1068FC00DBBF7047A51300204DF20243994210B53F
:10690C00044618D1FFF7C5FF20464FF6FF71FFF77D
:10691C00C0FF20460021FFF7B1FF20460649FFF7D4
:10692C00C3FF20460449FFF7BFFF20460021BDE806
:10693C001040FFF7A3BF10BDA513002007B504221C
:10694C0001910DEB0201FFF789FF03B05DF804FB29
:10695C0070B5044686B064213C4EFFF79AFF0621C1
:10696C0020460025FFF7EAFF64212046FFF791FF40
:10697C0037492046FFF798FF00212046FFF789FF93
:10698C0014212046FFF7DAFF013536F8021B2046AA
:10699C00FFF77FFF142DF7D104212046FFF7CEFF20
:1069AC0044F204012046FFF774FF44F2050120462F
:1069BC00FFF76FFF44F20B012046FFF76AFF44F22A
:1069CC000C012046FFF765FF01212046FFF7B6FFBB
:1069DC004DF202412046FFF75CFF00212046FFF7F5
:1069EC00ADFF02212046FFF7A9FF4FF4405120468E
:1069FC00FFF74FFF43F201012046FFF74AFF15490D
:106A0C002046FFF751FF14492046FFF74DFF9FED3D
:106A1C00130A01AA0221032007F0F2FA2A461049B0
:106A2C0001A80AF036FE01A92046FFF73DFF0D49EB
:106A3C0001AA0A2331F8020F013B02F8010BF9D12C
:106A4C0001A92046FFF730FF06B070BDC00C002036
:106A5C00AC130020C0130020A5130020CDCCCC3FDC
:106A6C00C51300200024002070B5044600680026E1
:106A7C0003685B689847014605462046FFF75EFFB2
:106A8C00AE4200D170BD013620463146FFF756FFAD
:106A9C00F6E7F8B500F500570446164697F8243487
:106AAC0033B1FFF79BFE01308000C7F82804F8BD16
:106ABC004D1EFFF793FE01462046FFF73FFF20686F
:106ACC00324629460368DB699847206829460368E3
:106ADC001B6A984701460028E9D02046FFF72EFF95
:106AEC00F3E700002DE9F0430446E9B0006818AD67
:106AFC0008AE03680DF1160807AF28AA0395029695
:106B0C00CDF804800097D3F8249006ABC847BDF8A5
:106B1C00161020460131FFF711FF069B43F20101CD
:106B2C002046013318BF0021FFF7B3FE2046002199
:106B3C00FFF7AFFE06992046FFF700FF2046002125
:106B4C00FFF7A7FE20460021FFF7F8FE20460021A4
:106B5C00FFF7F4FE20460021FFF7F0FE204600214F
:106B6C00FFF7ECFE20460021FFF7E8FE204600214F
:106B7C00FFF7E4FE07992046FFF7E0FE0699204652
:106B8C004B1C59425941FFF784FE20460021FFF768
:106B9C00D5FE20460021FFF7D1FE28A92046FFF79D
:106BAC0083FE31462046FFF77FFE29462046FFF73D
:106BBC007BFE03492046FFF777FE69B0BDE8F08302
:106BCC0052100020F8B5094E0024094F05463168D3
:106BDC00FFF7B4FE3368A34200D8F8BD37F8021BA8
:106BEC0028460134FFF755FEF4E700BFE0230020F0
:106BFC00AC0C00202DE9F04F0446E9B000681546B6
:106C0C000DF116080DF1600903680DF1200A07AEAD
:106C1C00CDF8048028AACDF80C90CDF808A00F462A
:106C2C000096D3F824B006ABD8474DF60B42BDF80E
:106C3C0016309542069903F101080FD8B5F55C4F53
