:0200000460009A
:100000004643464200000156000000000103030081
:1000100000000000000000000000000000000000E0
:1000200000000000000000000000000000000000D0
:1000300000000000000000000000000000000000C0
:1000400000000000010408000000000000000000A3
:100050000000800000000000000000000000000020
:100060000000000000000000000000000000000090
:100070000000000000000000000000000000000080
:10008000EB04180A063204260000000000000000FD
:10009000050404240000000000000000000000002F
:1000A0000000000000000000000000000000000050
:1000B0000604000000000000000000000000000036
:1000C0000000000000000000000000000000000030
:1000D00020041808000000000000000000000000DC
:1000E0000000000000000000000000000000000010
:1000F0000000000000000000000000000000000000
:10010000D8041808000000000000000000000000F3
:100110000204180804200000000000000000000095
:1001200000000000000000000000000000000000CF
:10013000600400000000000000000000000000005B
:1001400000000000000000000000000000000000AF
:10015000000000000000000000000000000000009F
:10016000000000000000000000000000000000008F
:10017000000000000000000000000000000000007F
:10018000000000000000000000000000000000006F
:10019000000000000000000000000000000000005F
:1001A000000000000000000000000000000000004F
:1001B000000000000000000000000000000000003F
:1001C000000100000010000001000000000000001D
:1001D000000001000000000000000000000000001E
:1001E000000000000000000000000000000000000F
:1001F00000000000000000000000000000000000FF
:10020000FFFFFFFFFFFFFFFFFFFFFFFFFFFFFFFFFE
:10021000FFFFFFFFFFFFFFFFFFFFFFFFFFFFFFFFEE
:10100000D100204335160060000000000000000001
:1010100020100060001000600078016000000000F7
:10102000000000600084010000000000FFFFFFFFDF
:10103000FFFFFFFFFFFFFFFFFFFFFFFFFFFFFFFFC0
:10104000FFFFFFFFFFFFFFFFFFFFFFFFFFFFFFFFB0
:10105000FFFFFFFFFFFFFFFFFFFFFFFFFFFFFFFFA0
:10106000FFFFFFFFFFFFFFFFFFFFFFFFFFFFFFFF90
:10140000814205D051F8043B40F8043B8242F9D8B0
:101410007047044A04494FF0000342F8043B9142EC
:10142000FBD87047C02A0020802F012080B5BFF371
:101430004F8F00BF00BF00BF00BF00F07FFA654BB9
:101440000822C3F8542100BF00BF00BF00BF00BF87
:1014500000BF00BF00BF00BF00BF00BF00BF00BF94
:1014600000BF00BF00BF5C4A5C495D48FFF7C8FF92
:101470005C4A5D495D48FFF7C3FF5D4DFFF7C9FF5B
:101480004FF0E0234FF47002C3F8882D0023594A2F
:1014900045F823200133B02BFAD1574B8021574A0E
:1014A00003F8011B9342FBD14FF0E020494C4FF071
:1014B0008037DFF87891DFF878814FF0FF32C0F89D
:1014C000085DC4F80471C4F80091C4F8F470C4F85D
:1014D000F080D0F8243D4A4E43F4E023C0F8243D88
:1014E000F36923F07F0343F04003F361736A23F051
:1014F0007F0343F040037362424B9A66DA661A67D1
:101500005A6700F020FA404BAB63404BEB63632318
:10151000002543610323856103613D4BC0F8203DF5
:10152000D0F8FC3D43F08073C0F8FC3D394B1A689D
:1015300042F001021A605A68374B1A6000F0C6FB8D
:10154000C4F804713548C4F80091C4F8F470C4F8C4
:10155000F08000F07DFFF36E43F44053F366304BB0
:101560001D60C3F80851C3F81851C3F82851C3F8D7
:10157000385103F5A0239A6BD20708D4294A5A653B
:1015800042F615621A659A6B42F001029A639A68F4
:10159000254C42F001129A6000F05EFA00F020FF44
:1015A00000F076FF00F0C2FB00F0C9F92368132BAE
:1015B000FCD900F0FFF82368B3F5967FFBD300F069
:1015C000C0F900F0BDF900F067FF00F075FF30BF13
:1015D000FDE700BF00800D40582501002C2700606A
:1015E00000000000C02A0020884C0160000000209C
:1015F00000280020B5BC000000E400E0A0E400E00A
:1016000000C00F4000C00A4091C9000095C9000009
:1016100000002020001000E06428012000366E0148
:10162000004008400000C056682801201B10182008
:101630000C0D1113054B064A5A64064A1A644FF4FE
:101640002A029A63044B9D46FFF7F0FE00C00A4051
:10165000BFAAAAAA070020000080062043690A4A00
:1016600003EB011003EB011130B5047A074D02EBD7
:101670000412946852682560C06810600B690BB151
:101680004A691A6030BD00BF6407002061F801009C
:1016900038B543690446027E03EB0212127A8A428D
:1016A00019D0187AFF2816D0814215D0197EFF294B
:1016B00011D001251968EDB25B680968194209D09B
:1016C000064B2946204603EB021305225B681A608D
:1016D000FFF7C4FF257638BD0025EBE7640700203F
:1016E00043690A4A03EB011003EB011130B590F88E
:1016F0002840074D02EB0412946852682560C06AC6
:1017000010600B6B0BB14A6B1A6030BD6407002090
:1017100061F8010038B543690446427E03EB0212CA
:1017200092F828208A421BD093F82800FF2817D06F
:10173000814216D093F83810FF2911D0012519687D
:10174000EDB25B680968194209D0074B294620466B
:1017500003EB021305225B681A60FFF7C1FF657691
:1017600038BD0025EBE700BF640700200F4A416940
:10177000936B23F47C0343F4802310B593630446F6
:101780000A68496813680B43094913600222036918
:101790001A6100F08DFE217E2046FFF75FFF617E1B
:1017A0002046BDE81040FFF79BBF00BF00C00F40C0
:1017B000A0860100304B40F6617210B5C3F82021BD
:1017C00000F06EFE2D4A2E49D2F8803043F003031C
:1017D000C2F8803040F204422A4BC3F860212A4A02
:1017E0001068084203D1D3F8A8118C071AD04FF023
:1017F00000415163D3F8402142F00202C3F8402176
:10180000204AD2F840319807FBD44FF0E0234FF440
:1018100000321920C3F88C224FF000421A4B9A6311
:1018200000F00AFE184B00214FF08042154C9A63DD
:101830004FF4407219600A23C4F8A831134B1846BC
:1018400000F002FE4FF4810240F2431302604FF4B5
:1018500080020264C4F858010D4AC4F848310D4BA7
:10186000C3F804224FF0E0234FF40032C3F80C21F8
:101870000123C4F8403110BD00800D4000C00F406E
:10188000001C1E0000002E4000900D4000000020B3
:10189000E5B300000028002008B50F4B1B6E9B0726
:1018A00000D4FBBE72B60D4B0022C3F84021A3F555
:1018B0000D130B4A1A64A3F1FF53A3F52B239D4686
:1018C000BFF34F8F0748084B03604FF40013DB69E9
:1018D0009B689847E6E700BF00441F4000002E4089
:1018E0000300200000802020000012EB074B0004C2
:1018F0000122C3F8A010C3F8A400C3F8B0205A69AD
:10190000D207FCD501225A61704700BF00402A402F
:10191000084B094AC3F8A000C3F8A4200122C3F869
:10192000B0205A69D207FCD5D3F80001212280B239
:101930005A61704700402A40040003007047704716
:10194000704700BF70474FF0E02300211022C3F81A
:10195000941DC3F89C2D2E4AC3F8A02D1122C3F864
:101960009C2D2C4AC3F8A02D1222C3F89C2D2A4A84
:10197000C3F8A02D294AC3F89C2D294AC3F8A02DED
:10198000284AC3F89C2D284AC3F8A02D274A42F0C4
:101990001502C3F89C2D264AC3F8A02D02F18152EE
:1019A0000D32C3F89C2D234AC3F8A02D224AC3F858
:1019B0009C2D224AC3F8A02D214AC3F89C2D214A10
:1019C000C3F8A02D204AC3F89C2D204AC3F8A02DAF
:1019D0001F4AC3F89C2D1F4AC3F8A02D00BF00BFAB
:1019E00000BF00BF00BF0122C3F8942DBFF34F8F8B
:1019F000BFF36F8FC3F8501FBFF34F8FBFF36F8FCD
:101A0000D3F8142D42F44032C3F8142D704700BFB0
:101A10003F000010250008070900100013002000F7
:101A2000210002071400002025000813802F012048
:101A30000900001027000B1317000040330010139B
:101A4000180000602F000B07190000702F000B1307
:101A50001A0000803B000B1373B5864B864A8749FA
:101A6000C3F85C22C3F86012C3F86422A2F53042C6
:101A7000834CC3F8682202F5E042C3F86C22C3F835
:101A80007022C3F87422C3F878221822DA661A6723
:101A90005A679A67DA67C3F88020C3F88420C3F8CE
:101AA00088200122C3F82C27C3F83027C3F8342735
:101AB000C3F83827C3F83C27C3F85027714A936905
:101AC00023F0604323F4407343F0204343F4407316
:101AD0009361D2F8843043F00C03C2F884306A4B2F
:101AE0001A6842F002021A601968684A21F4F1414A
:101AF00021F073010904090C0A4365491A604FF08B
:101B0000FF325A6002F57702886802F5605202409F
:101B1000604842F000529A60DA6822F07802DA6097
:101B20001A6A224002431A621A6A22404FF4005491
:101B3000024359485A62594A9A62DA62D1F8B82087
:101B400022F03F0242F00102C3F8B820D1F8BC20D5
:101B5000002122F03F0242F00102C3F8BC2040F213
:101B6000056219611C661867C3F880205C665867B7
:101B7000C3F884201A684A4822F002021A60494ACF
:101B80009A610222DA61484A42F8041B8242FBD180
:101B90001A6842F001021A603B4B1C6814F0010401
:101BA000FBD1404A0226214620469A6140F2F56266
:101BB000DE61C3F8002240F26642C3F8102240F210
:101BC0009942C3F82022394AC3F8302242F2014236
:101BD000C3F8342240F23542C3F84022344AC3F8F5
:101BE0005022344AC3F85422334AC3F8602242F2E6
:101BF0000122C3F86422FFF779FE0120FFF776FE89
:101C00003046FFF773FE2046FFF782FE45F60D5380
:101C10000546984227D10420FFF768FE4FF40001E3
:101C20002046FFF763FE0120FFF760FE3046FFF716
:101C30005DFE0846FFF76CFEA84212D10420FFF7B4
:101C400055FE10201D491E4B1E4A18700023521AC3
:101C50000093012302EB00521B4800F0FDFB02B091
:101C600070BD0820EEE71022174802B0BDE87040B2
:101C700000F0EABB00801F40F9B00100F91001003C
:101C800000FFF07C00C00F4000402A401200FFFF20
:101C900000802A404000008063000200FF000F83A4
:101CA00000432A40F05AF05A00422A409F0418305C
:101CB000EB06180A063201263806180A00002470BE
:101CC000D72E0120000000709820012070B5164B1F
:101CD0004FF480514FF400504FF440444FF480359E
:101CE00043F242061A6912F0020F03D09C615D6153
:101CF0009E61F7E712F4005F01D15861F2E712F438
:101D0000805F01D15961EDE7002AEBDA12F4803FE0
:101D100003D04FF480329A61E4E7520602D44022A5
:101D20005A61DFE770BD00BF00800D403E4AB3EE50
:101D3000096A3E48D2F880309FED3D5A23F00103F6
:101D400010B5C2F8803003233A4CC2F890303A4BB9
:101D5000D3F8E030D9B2016007EE901AC3F30B203C
:101D60001B0DB8EEE77A354907EE900A2060F8EED1
:101D7000E76A07EE903A37EE455A314BF8EEE77ACC
:101D800037EE466A77EEE67A81ED006A25EE275A4D
:101D9000C3ED007AD2F88030C5EE065A75EEA65A29
:101DA000FCEEE55A15EE901ADFED265A37EE657A0D
:101DB00043EA0153C2F8803027EE277A224B66EEC1
:101DC000277AD2F89011C7EE065A35EEA67ABCEE05
:101DD000C77A17EE100A87EE867A03EA00430B43B0
:101DE000C2F89031D2F8901177EE267AFCEEE77ABD
:101DF00017EE903AC3F30B030B43C2F89031D2F8BD
:101E0000803043F00203C2F8803000220F4B83F889
:101E100040200F4B0F4AC3F840214FF0E02301222E
:101E2000C3F8082110BD00BF00810D40C82101206A
:101E30000000AA42C421012000441F40CC210120FF
:101E4000D02101200000B4420000FF0F00E400E0B8
:101E50000028002055C3000070B5104CD4F8803025
:101E60000B2B18D14FF0FF330D4A0E4E0E4D11685B
:101E700004324B40202143F30000013900EA060000
:101E800080EA5303F7D1AA42F1D1D4F8A800C31ACB
:101E90005842584170BD0020FCE700BF00FF2720DA
:101EA00080FF27202083B8EDA8FF2720184A0023B1
:101EB00070B5C2E92033C2E92233C2E92433C2E952
:101EC0002633C2F8A830BFF34F8F4FF0E0248032A2
:101ED000C4F8702F2032C4F8702FBFF34F8FBFF3B8
:101EE0006F8F0C4A0C4E91680C4D91601C2113634E
:101EF0002846C6F8C03F00F0A3FAC6F8DC0FBFF3CF
:101F00004F8FC4F8685FBFF34F8FBFF36F8F70BD03
:101F100000FF272000800F4000F02720C0FF27206F
:101F20002DE9F0470C46FFF797FF002800F0D68117
:101F3000B04E2046B0493C2500F092FAD6F8A49065
:101F4000AE492046B9FBF5F8B8FBF5F7C6F8A47022
:101F500000F08EFA182100230A22B7FBF1F001FBF2
:101F60001071204600F08CFAA549204600F080FA56
:101F700000230A2205FB1781204600F081FAA049C0
:101F8000204600F075FA00230A2205FB189120462E
:101F900000F076FA204600F077FA9A49204600F0E1
:101FA00067FA1022D6F89810204600F07DFAD6F88D
:101FB0008850002D59D09449204600F059FA10223B
:101FC000D6F88810204600F06FFAEA0740F1D58075
:101FD0008E49204600F044FA2A062CD58C4920462A
:101FE00000F046FA10220023D6F89010204600F0A8
:101FF00047FAD6F890201F2A00F2D0808549204663
:1020000000F036FA00231022D6F89810204600F08F
:1020100037FA8149204600F02BFAD6F898100023B1
:102020001022204600F02CFA7C49204600F020FACD
:10203000204600F029FAEB0540F1BA8078492046A5
:1020400000F00EFA2F0409D57649204600F010FA68
:102050001022D6F89410204600F026FAE80340F14A
:10206000BC807149204600F0FBF9D6F88C5085B150
:102070006E49204600F0FCF920461022D6F88C105C
:1020800000F012FAA80740F124816949204600F0C7
:10209000E7F96849204600F0EBF996ED280A02219D
:1020A0002046B7EEC00A00F0DFF96349204600F091
:1020B000DFF96249204600F0DBF9614B61490A22F1
:1020C00018680023B0FBF1F1204600F0D9F95E4911
:1020D000204600F0CDF95D4B9D68AA0708D51A6B24
:1020E00020465B4B9A420CBF5A495B4900F0B8F955
:1020F0006F0703D55949204600F0B2F92E0703D5E2
:102100005749204600F0ACF9E80603D5554920466A
:1021100000F0A6F9A90603D55349204600F0A0F91E
:102120006A0603D55149204600F09AF92B0603D5DB
:102130004F49204600F094F915F4807500F0E780CF
:1021400020464C4900F08CF9404A20464A499368A1
:1021500023F48073936000F083F94849204600F02F
:102160007FF9474B07221A64464A936B43F04003BA
:102170009363BFF34F8F30BFFDE7AB0701D54249F3
:1021800027E72F0701D5414923E7E80601D5404954
:102190001FE7A9067FF520AF3E491AE73E4B9A425A
:1021A000FFF446AF20339A42BFF442AF3B493CE7CD
:1021B000AF0501D53A4942E7680501D539493EE7FF
:1021C000290501D538493AE7EA0401D5374936E708
:1021D000AB047FF537AF364931E7A90301D535495F
:1021E00040E76A0301D534493CE72B0368D53349FE
:1021F00038E700BF00FF272015140020221400201C
:102200004B190020491400206E1400207714002080
:102210003D1500205F1500207E150020BD15002013
:102220001D16002056170020781700205418002093
:102230005D180020A0180020C3180020C918002035
:10224000541E002040420F00E718002000800F407D
:10225000F100AD0B441A00208D1A0020CE1A002088
:10226000F61A0020211B0020481B0020721B0020B2
:10227000941B0020B61B0020E01B0020021C002045
:1022800000C00A4000400D40A0140020C2140020ED
:10229000EC14002012150020802F0120DB150020F7
:1022A0003E1600206B160020B0160020F01600200D
:1022B000241700209C170020CF170020F8170020BB
:1022C000EF0101D53349CDE6AD017FF5CEAE324900
:1022D000C8E669007FF5DDAE3049D7E620463049D3
:1022E00000F0BEF820462F4900F0BAF820462E49EB
:1022F00000F0B6F820462D4900F0B2F820462C49EF
:1023000000F0AEF82B49204600F0AAF8E3E62A4F89
:10231000D7F8C030CBB3D7F8DC601C21274800F0D9
:102320008FF8864231D1DFF8A080DFF8A090DFF887
:102330008CA00123D7F8C0202E46AB4001351342B4
:1023400021D04146204600F093F829460AEB860644
:10235000204600F091F84946204600F089F8002315
:102360000A227168204600F08BF81549204600F0DB
:102370007FF8716800231022204600F081F811498F
:10238000204600F06DF8062DD3D1FFF78FFD012018
:10239000BDE8F0870F1800203818002084180020AE
:1023A000EC180020041900204D1900209719002076
:1023B000BC190020041A002000FF2720C0FF27209E
:1023C000541C0020021A0020451C0020BD180020CB
:1023D00008B5FFF741FD003818BF012008BD00BF58
:1023E0000F4BDA6E42F44032DA66DA6E42F4407233
:1023F000DA66A3F5603340F237625A64A0229A6429
:102400009A6C1206FCD4074A40F237635364A02347
:102410009364936C13F08003FBD1034A13707047ED
:1024200000C00F4000800C40CE2A0120F8B500BF4C
:10243000F8BC08BC9E4670475FF800F089BC0000FD
:102440005FF800F0CDCA00005FF800F0EDA60000D4
:102450005FF800F031AF00005FF800F0F9C2000053
:102460005FF800F0BBCA00005FF800F029CD000063
:102470005FF800F0B7CA00005FF800F01BCC000066
:102480005FF800F07FCC00005FF800F02DCC00007A
:102490005FF800F005C500005FF800F0C1F1000032
:1024A0005FF800F03DC800005FF800F081CA00004E
:1024B0005FF800F0255A00005FF800F017CB00002D
:1024C000450000008D060000310C0000B937000007
:0424D000155500009E
:1024D40000F03F000F4B22F0604221F0604140F4D5
:1024E40089101867C3F88010C3F890201A6F22F47B
:1024F40080521A671A6F002AFCDAD3F8702122F48A
:10250400000222F40042C3F870211A6F22F48032D0
:102514001A67704700800D4080C00F400000000320
:102524001900000010000000E8841F4001000000B2
:10253400FF000000FF000000000000000000000099
:102544001800000010000000E4841F400100000097
:10255400FF000000FF000000000000000000000079
:102564001F000000195A000070C00F40000C00004A
:102574001100000011000000E0841F400200000070
:102584002C00000012000000E0841F400100000045
:102594001000000011000000DC841F400200000055
:1025A4002D00000012000000DC841F400100000028
:1025B4001E0000000D5A000070C00F40C000000053
:1025C4001200000013000000D0841F40010000002E
:1025D400FF000000FF0000000000000000000000F9
:1025E4001300000013000000CC841F400100000011
:1025F400FF000000FF0000000000000000000000D9
:102604001C000000015A000008034D005400500053
:1026140020035400650065006E00730079002000FB
:102624004D005400500020004400690073006B000A
:1026340018035400650065006E007300790064009F
:10264400750069006E006F00040309040902690043
:10265400030100C032080B00020202010009040059
:1026640000010202010005240010010524010101FA
:102674000424020605240600010705820310001045
:1026840009040100020A00000007050302400000DB
:10269400070583024000000904020003060101004B
:1026A40007058402400000070504024000000705F6
:1026B400850320000A09026900030100C032080BE7
:1026C40000020202010009040000010202010005E7
:1026D4002400100105240101010424020605240636
:1026E40000010705820310000509040100020A0025
:1026F4000000070503020002000705830200020030
:102704000904020003060101040705840200020013
:1027140007050402000200070585032000070A06D6
:082724000002EF020140010078
:10272C00000000000000000000000000000000009D
:10273C00000000000000000000000000000000008D
:10274C000548064B1B1AD90F01EBA301491002D007
:10275C00034B03B118477047C02A0020C02A002041
:10276C000000000008B5054B1BB105490548AFF347
:10277C000080BDE80840FFF7E3BF00BF0000000089
:10278C002C21012000840160002070477047034613
:10279C0007B5806C48B101220DF1070107F0BEFAB4
:1027AC00012804D19DF8070003E0D86C20B94FF044
:1027BC00FF3003B05DF804FB01220DF1070105F0B9
:1027CC0093FFEDE70346806C08B107F062BBD86C51
:1027DC0008B106F045B84FF0FF307047836C10B568
:1027EC0053B1187810F0080005D0D8695B69C01A8D
:1027FC0048BF6FF0004010BDC06C0028FBD090F8B3
:10280C00313013F008030ED0D0E90413D0E90024C2
:10281C00881A63EB0403B0F1004F73F1000328BF77
:10282C006FF00040E7E71846F5E70346806C08B107
:10283C0007F082BCD86C08B106F038BE70470000B7
:10284C0008B50CF0DFFB0A4B1B7803F0FF006BB1F3
:10285C00084B187810F0010008D0074B1868074B8C
:10286C001B68C01A0E2894BF0020012008BD00BFB1
:10287C00492F0120482F0120682801207C280120A5
:10288C0000230A220CF08BBD70B505460C4651B1E5
:10289C0008460FF0A5F82B680246214628465B68CF
:1028AC00BDE87040184770BDFFF7EEBF10B5044689
:1028BC00FFF7EAFF2046BDE810400CF047BD0000D2
:1028CC0038B50C4B04460C4D036000F5AC7040F869
:1028DC00105C08F057FD04F58470C4F8F85008F04B
:1028EC0051FD04F1B800C4F8A85008F04BFD204687
:1028FC0038BD00BFA00500207C0500200346806B7E
:10290C0008B107F087BED86B08B106F079BF7047E5
:10291C0008B51030FFF7F2FF08BD07B501228DF89E
:10292C0007100DF107011030FFF7E8FF03B05DF859
:10293C0004FB0000094B0022642010B5084CC3F8BE
:10294C0040210BF031FD12F077F9FFF779FF00B160
:10295C0010BD204604F0D0FDF7E700BF00002E406C
:10296C00002B00204FF0E023014AC3F80C2D7047D8
:10297C000400FA05074B5A6E42F400325A665A6D3F
:10298C0022F023025A655A6D42F001025A65BFF3D8
:10299C004F8F704700C00F402DE9F04F6A4E8BB03F
:1029AC006A4D33686A4C0133336002F075FC2B8836
:1029BC00684A8342136838BF288013F0010F09D18D
:1029CC00654B1B68012B4FF0FF3318BF002323808E
:1029DC0001231360208800B202F064FA208023885F
:1029EC001B0402D55D4804F087FD23881BB2002B25
:1029FC0003DD5B4B0822C3F88420208800B203F06F
:102A0C00F5F9208023881BB2002B03DD544B0822E0
:102A1C00C3F88820534B544FD3F800803B6803F520
:102A2C007A7343456FD2514BDFF87CB1B3F9003068
:102A3C00DFF878A1DFF87891002B59D008A803F0C3
:102A4C00CEFE9DF92430BDF9202004939DF927304A
:102A5C00474903939DF92630464802939DF925304A
:102A6C0001939DF9233000939DF922300CF08AFCE0
:102A7C0041494048FFF718FF31683E48FFF700FF17
:102A8C003E493C48FFF710FFDBF800103948FFF7D0
:102A9C00F7FE3A493748FFF707FFDAF800103548D8
:102AAC00FFF7EEFE35493348FFF7FEFE2A8834491E
:102ABC0030480CF067FC33492E48FFF7F5FED9F887
:102ACC0000102C48FFF7DCFE2F492A48FFF7ECFEDC
:102ADC002E4B1C8824B2D4B92D4B2E4953F82420EC
:102AEC00013424480CF04EFC082C2A49284BF5D113
:102AFC000023C7F800803360CBF80030CAF80030F0
:102B0C002B80C9F8003030BF0BB0BDE8F08F224BE2
:102B1C000024224953F8042B0134164807930CF077
:102B2C0031FC182C1D49079BF4D11D4C1D49226802
:102B3C0010480CF027FC6022002117480AF066F9B7
:102B4C0000232360D4E700BF341D0120A8280120F6
:102B5C00AA280120BC82002070280120002B002014
:102B6C000040004268280120301D0120B6280120B9
:102B7C00FD0E0020581E00201E0F0020270F0020E5
:102B8C00220F0020260F0020290F0020B82801203A
:102B9C00002101202E0F00204C210120330F00209A
:102BAC0020210120380F0020442101204821012040
:102BBC008820012010B50B4C0B490C48FFF776FE12
:102BCC0023685BB100F01CFB00F05CFB03F088FB9E
:102BDC0007490648BDE81040FFF768BE01200BF01E
:102BEC00E3FBEDE7A82601203C0F0020581E002037
:102BFC00430F002070B50546D0F88C0480B9002630
:102C0C00D5F8800440B307F035FF0446A6B1D5F8DB
:102C1C008C0480B1036800215B6C984760B90AE0B2
:102C2C000368DB6B98470028E9D0D5F88C0428B9E9
:102C3C00D5F88C0440B90024204670BD03681B6C89
:102C4C0098470028DBD1F3E7036801215B6C9847B8
:102C5C0006460028D4D1EEE7D5F884040028D4D059
:102C6C0006F002FAD1E700002DE9F341454CFF23B1
:102C7C000021454E04F5926584F8BC3484F8C814E0
:102C8C00284609F08FFD2846C4F88C5409F008F941
:102C9C00002850D10123D4F88C1420461A4608F091
:102CAC001FFC002847D0394B5A68132A51DDD4F841
:102CBC008034002B57D0DD69013D3248FFF79AFF75
:102CCC00D4F880340746002B54D09B794FF4007411
:102CDC009C40A4B233684FF00A08002600220093EF
:102CEC00FE232B492B480CF04DFB2B492948FFF7B1
:102CFC00DBFD2A4633462748CDE900860CF059FB0C
:102D0C0026492448FFF7D0FD3A4633462148CDE901
:102D1C0000860CF04EFB22491E48FFF7C5FD24FA35
:102D2C0008F11C48FFF7ACFD1E491A4802B0BDE87B
:102D3C00F041FFF7BBBD336800221B490093FE2313
:102D4C0014480CF01FFB134802B0BDE8F0410CF026
:102D5C00FDBA03EB820130688860511C596003EBAB
:102D6C0082039C65A3E7D4F88454002DA5D0D5F834
:102D7C003054A2E7D4F88444002CABD0D4F83C44B3
:102D8C00A8E700BFD821012008240020AC26012090
:102D9C007A0F0020581E0020910F0020A40F002055
:102DAC00B50F0020C40F00204F0F002070B5304B22
:102DBC000024304D4FF47A722F4E2B6028462F4B47
:102DCC00C5F8B020C5F8A830C5F8F830C5F84831BA
:102DDC006FF001032A496C60C5F8AC4085F8B4402B
:102DEC0085F8044185F85441C5F8A041A5F8AC41DB
:102DFC00C5E93F42C5E953423246C5E96934C5E9E4
:102E0C003C44C5E95044C5E96444C5E966440CF04A
:102E1C00B3FB1C4B1C4A20461D6003F500531B4999
:102E2C00C3F8204483F82444C3F82844184BC3F84F
:102E3C009024184AC3F88044C3F8A4240722C3F88A
:102E4C008444C3F8A8242922C3F88C4483F8AD2405
:102E5C00114AA3F8984483F8B144C3F89C24324631
:102E6C0083F8B84483F8C844BDE870400CF084BBC8
:102E7C00A0050020AC26012030220020A406002052
:102E8C00A1010000002B0020EC0600206D000000CA
:102E9C00D821012000093D000C060020F0B5424D60
:102EAC0087B0424840F2EE270AF0D2FB404E2C6825
:102EBC00FFF7C6FC30B92B6832781B1BAAB1B3F5EF
:102ECC00FA6F14D901F058FD03880446012B11D078
:102EDC0042F20F762B68B34218D8FFF7B1FC0028EA
:102EEC00F8D0344B01221A6010E0BB42E9E70CF039
:102EFC0089F8DDE7304B314A1B8812889BB292B2BD
:102F0C0093422C4A34BF0023012313602C492D48D3
:102F1C00FFF7CAFC21882B480CF00FFA29480CF05B
:102F2C0015FA294811F08CFE18B12649264811F0E3
:102F3C0097FE04A803F053FC18B924492148FFF765
:102F4C00B5FC9DF917300124BDF9102003939DF9B0
:102F5C0016301F4902939DF915301A4801939DF9BB
:102F6C00133000939DF912300CF00CFA15480CF04C
:102F7C00EDF903F093F9FFF7FDFCFFF775FE15492A
:102F8C001048FFF793FC02F0BFFF134B13490D4899
:102F9C001C60FFF78BFCFFF70DFE21460D200BF09C
:102FAC00BBFD07B0F0BD00BF6828012000366E01E4
:102FBC00492F0120702801205C2901201E240020AB
:102FCC00CB0F0020581E00204C1E0020D80F0020D4
:102FDC00ED0F002014100020A82601202010002046
:102FEC0010B504460CF0C4F8204610BD38B5254B7E
:102FFC001A6811691A79244BDA77244AA2F500630E
:10300C00914238BF134603F50060BFF34F8F03F1B5
:10301C00200219464FF0E02482428CBF012240224C
:10302C0003EB4212C4F85C1F20319142FAD1BFF37A
:10303C004F8FBFF36F8F1649164C0A68164D01322D
:10304C000A602988103353F8082C09B2984242FAC6
:10305C0001F244F8042BF4D1104A13881BB243B983
:10306C000C4802F02DF918B90D4A1368013313609E
:10307C0038BD13881BB2012BFAD1064802F0A2FF0F
:10308C00F1E700BFCC14012000800E400008202086
:10309C0044210120881E01201A240020B828012078
:1030AC0048210120000000002DE9F043DFF84481A5
:1030BC00052204464C49D8F8003040465B682DED9B
:1030CC00028B83B098474FF4807140460CF035F971
:1030DC0040460CF03BF91A232102444801330A46BE
:1030EC00002500FB03FC2E4601359CFBF2F707F193
:1030FC000109B9F1400F05DD092D0A44F3D1362B36
:10310C00ECD1082622463A493A4807F03F07B60167
:10311C00CDE900590CF036F907EE904AD8F800309A
:10312C000322B8EEE77B34495B6806F4E07631485D
:10313C009FED276B27EE067B06EE905AB8EEE66BFA
:10314C0027EE067B06EE909AB8EEE66B27EE067B32
:10315C009FED216B87EE068B984702212548B0EE38
:10316C00480B0CF071F923480CF0F0F8FDEEC87B1D
:10317C0042F2107217EE900A02FB00F307EE103ABF
:10318C009FED176BB8EEC77B98EE067BFDEEC77B09
:10319C0017EE901A11F05CFD184AD36923F44063C2
:1031AC0043F40063D361936A6FF308033B433343E7
:1031BC009362A2F5A022536823F4002323F00703A3
:1031CC0043F40023536003B0BDEC028BBDE8F083E5
:1031DC0000000000000070400000000060E3764139
:1031EC00000000000088C3403010002000366E0143
:1031FC0036100020581E00205310002000C00F4035
:10320C00194AD36F10B543F44023184CD367D4F844
:10321C008830002B27DB164B1868FFF745FF154B42
:10322C000322C3F82021C3F82821C3F82421C3F8B2
:10323C007C210222C3F894250023C4F8E030042337
:10324C00C4F88C304FF0A063C4F890304FF4803346
:10325C00C4F89430084BC4F89830084BC4F89C3030
:10326C00074BC4F8883010BD00C00F4000403840F8
:10327C00FC23002000801F401B000300001F1F1FA9
:10328C000100009210B5204C012120460BF022FFCA
:10329C0023681E4A1E491A6004221E489A8218612D
:1032AC001D48C3E901124FF480620021DA82A2F5B5
:1032BC00A052D9609A61DA8A92B2DA8306229A8392
:1032CC002379164A9B0003F1804303F56C231960A4
:1032DC001A602379124A03F1100142F821005A11A5
:1032EC0003F01F00012102F1382203F160438140F9
:1032FC00403203F564439200116060221A70094B4E
:10330C002279DA7610BD00BFCC140120A0403840E1
:10331C000000020200002020CD08000013000080F5
:10332C000028002000800E4010B5084CD4F88830DE
:10333C0023F01043C4F88830FFF7B6FED4F8883079
:10334C0043F01043C4F8883010BD00BF0040384033
:10335C0010B5064C002120460BF0BCFE2046044A5A
:10336C000449BDE810400CF007B900BFCC14012093
:10337C0030220020C10800004368132B10B505DC77
:10338C0000EB83040133A2604360A16510BD40686B
:10339C00704700EB81008068704700207047012067
:1033AC00704730B40446806B114618B13BB930BC41
:1033BC0006F0A1BDE06B10B130BC05F066BA30BCB4
:1033CC00704710B4002403460C70806B18B15DF884
:1033DC00044B06F0FBBBD86B18B15DF8044B05F041
:1033EC0061B85DF8044B70470346806B08B106F07A
:1033FC005ABFD86B08B105F003B9704710B5044635
:10340C0000230A220BF0CBFF2046BDE810400BF046
:10341C009DBF70B505460C4651B108460EF0E0FA5A
:10342C002B680246214628465B68BDE87040184769
:10343C0070BD10B50446FFF7ECFF2046BDE8104008
:10344C000BF084BF38B50B4C05460B492046FFF7F3
:10345C00E0FF0A492046FFF7DCFF2E200AF07EF839
:10346C00294620460BF069FF2046BDE838400BF09A
:10347C006DBF00BF581E00205710002062100020A6
:10348C00D0F880342BB19B794FF40070984080B207
:10349C007047D0F8840408B1D0F83C047047D0F8D9
:1034AC00803413B1D86901387047D0F8840408B15E
:1034BC00D0F83004704700EB810038B5856D284694
:1034CC00FFF7EDFF04462846FFF7DAFFA4FB0001E7
:1034DC0038BDD0F8803430B515468FB08BB1002292
:1034EC0003F589646846134600920A46214606F0A5
:1034FC0069FE20B12A462146684606F0C3FF0FB08C
:10350C0030BDD0F8844444B104F589640A46684659
:10351C000C93214605F0CEFB08B90020EFE72A46B4
:10352C002146684606F0BCF80028F6D0E7E7836B26
:10353C0010B553B1187810F0080005D0D8695B6944
:10354C00C01A48BF6FF0004010BDC06B0028FBD004
:10355C0090F8313013F008030ED0D0E90413D0E901
:10356C000024881A63EB0403B0F1004F73F10003DD
:10357C0028BF6FF00040E7E71846F5E7836B33B1DF
:10358C001B7813F0700F14BF012000207047C06B24
:10359C000028FBD090F8313013F0500FF3E7836B19
:1035AC0023B9C06B003818BF012070470120704749
:1035BC0038B500F1B80504462846FFF7F0FF10B106
:1035CC00284607F0DFFE002384F8AC31C4F8A8319C
:1035DC0038BD0346806B08B106F0A0BBD86B08B1B0
:1035EC0005F082B84FF0FF30704708B500F58470D5
:1035FC00FFF784F908BD000000224FF47A710273C2
:10360C00C0E90121C0E91222014A0260704700BFE3
:10361C00A4060020044B10B5044640F8103B07F0FC
:10362C00B1FE204610BD00BF7C05002000EB8100E0
:10363C00436DD3F8801400B58FB051B1002301F560
:10364C00896168460093012306F0CAFE0FB05DF84D
:10365C0004FBD3F884040028F8D00C91012300F566
:10366C008961684605F0BDFFF0E7000070B50546BE
:10367C000E468EB0114605EB860514481446FFF72E
:10368C00D8FE6B6DD3F8801461B1002322466846D6
:10369C000093012306F0E5FD10B1684607F016FE15
:1036AC000EB070BDD3F8840438B10C9101230146DF
:1036BC002246684605F061FB08B90020F0E7684631
:1036CC0005F019FE0028F8D0EAE700BF581E0020CC
:1036DC0000EB8100436DD3F8801400B58FB059B165
:1036EC0000236846009306F0BCFD10B1684606F056
:1036FC0052FC0FB05DF804FBD3F8840430B10B46D8
:10370C000C910146684605F038FB08B90020F0E73B
:10371C00684605F036FE0028F8D0EAE730B500F12F
:10372C00B80595B004462846FFF739FF10BB124A7E
:10373C0040F20223A16D684607F03CFF019B04A9EF
:10374C002846C4F8AC30029BC4F8B0309DF80C305D
:10375C0084F8B43007F02CFE6846FFF75BFF284670
:10376C00FFF71DFF30B90549054815B0BDE83040DD
:10377C00FFF75FBE15B030BD6E1000207C1000202E
:10378C00581E002010B50446B830FFF708FF78B17A
:10379C00236820461B6C98470023204684F8AD31E3
:1037AC006FF00103C4F8A431BDE81040FFF7B6BFB9
:1037BC0010BDF8B504460E464FF48C771546B83458
:1037CC00FFF7ACFF07FB06F200232046FFF7E9FDED
:1037DC003A4629462046FFF791F8F8BD10B5D0F8C7
:1037EC00A8410A46611CC0F8A8112146FFF7E1FF69
:1037FC00204610BD0123164A0021F0B50446C7B07F
:10380C00043080F8A831FFF731FF002563684FF0D2
:10381C00FF36104FC4F89831C4F8A851D4F8983139
:10382C009D4201DB47B0F0BD0023394606A8ADF838
:10383C000E5000960135CDE901330123ADF80C3063
:10384C000EF075F869462046FFF7C8FFE6E700BFA3
:10385C006E100020E5120020F8B54FF48C770C4662
:10386C00164600213A46054609F0D0FAD4F8A8319C
:10387C00B3420ED32046B834FFF750FF07FB06F2D5
:10388C0020460023FFF78DFD3A4629462046FFF7D8
:10389C00A0FE2846F8BD30B50446C7B0D4F8B051E8
:1038AC0075B12A4621466846FFF7D6FF94F8B42135
:1038BC004AB1029BC4F8B0319DF81830002BEDD002
:1038CC00284647B030BDD4F8B031D4F8A811013334
:1038DC008B4238BF1A46C4F8B021EDE730B5CDB0F5
:1038EC0015460A46014606A81C46FFF7B5FF0CA96B
:1038FC0028460EF01CF8509B069A1A609DF824304E
:10390C00002B3DD1079BBDF82A10236001F01F004E
:10391C00BDF82620519B40001A80BDF82820049049
:10392C00C1F34510C90A530A0390029102F01F011A
:10393C00C2F3431203F2BC730191202100925298FE
:10394C00114A0DF0D1FDBDF82E10BDF82C2001F060
:10395C001F00530A400003F2BC730490C1F34510DE
:10396C00C90A0390029102F01F01C2F3431253984B
:10397C00019120210092044A0DF0B6FD4DB030BDEE
:10398C004FF0FF33BFE700BF9410002000B5C7B065
:10399C000A4601466846FFF75FFF019847B05DF89D
:1039AC0004FBD0F8403170B50446C8B0A3B3DD6950
:1039BC0004F584760DF1020269463046FFF714FDDA
:1039CC000DF1060201A93046FFF70EFD304607F057
:1039DC00D9FCD4F8A421214602A8FFF73DFFBDF87D
:1039EC00003002AAD4F8A411ADF818302046BDF866
:1039FC0002300395ADF81A30BDF80430ADF81C3028
:103A0C00BDF80630ADF81E30FFF7D3FE6FF00103A2
:103A1C00C4F8A43148B070BDD0F84451002DC7D0C3
:103A2C002D69C5E770B5C6B0064614460A46014670
:103A3C0068461D46FFF710FF00994B1C07D1104933
:103A4C0020460DF074FFBDF80E0046B070BD2B463D
:103A5C0022463046FFF7E6FF20460DF0C1FF20441A
:103A6C0010F8013C2F2B04D02A46054920460DF0B6
:103A7C008CFE2A4606A920460DF087FEE3E700BF20
:103A8C00E5120020F0B5ADF21C4D4FF480730446E6
:103A9C000D4617466A46FFF7C5FF694606461E489F
:103AAC00FFF7C7FC2A462146C0A8FFF7D5FE4FF406
:103ABC008072C6A980A80DF08CFE4FF48072394636
:103ACC00C6A80DF086FEC0AA29462046FFF771FE57
:103ADC004FF48073294604EB86060DEB0302204657
:103AEC00FFF7A0FF40A90C48FFF7A3FCB06D40AA5C
:103AFC006946FFF7EEFC064650B94FF4807280A978
:103B0C00C6A80DF066FEC0AA29462046FFF751FE56
:103B1C0030460DF21C4DF0BD581E0020D0F8A431DB
:103B2C008B422DE9F0410446D4B00E46154603D124
:103B3C00D0F8A03193422BD004F584784FF48073E5
:103B4C0014AA31462046FFF76DFF07464046FFF7A3
:103B5C0026FD10B1404607F015FC04EB870714AAAC
:103B6C002B466846B96D07F025FD019B04A940461C
:103B7C00C4F8FC30029BC4F800319DF80C3084F87A
:103B8C00043107F015FC6846FFF744FDC4E968569C
:103B9C0054B0BDE8F08170B5044616461D460022AF
:103BAC0004F58474FFF7BAFF324600232046FFF772
:103BBC00F8FB049A29462046FFF70BFD70BD2DE952
:103BCC00F041B2F1FF3F14BF90468846ADF54C7DF5
:103BDC0004460E464246014640A81F46FFF73CFEEF
:103BEC004FF48072D2998CA80DF0F3FDBDF80E3114
:103BFC00419A86A9ADF826320023204688928793F5
:103C0C00CDF818828DF82472CDE98A3301238DF812
:103C1C002532FFF7E3FD40AA054641904146204678
:103C2C00FFF7C7FD87B16A4629464FF480732046DB
:103C3C00FFF7F8FE6A463146201DFFF7F7FC2846D1
:103C4C000DF54C7DBDE8F08140F20222294620465C
:103C5C00FFF764FFF3E790F8AC310BB9FFF7CABD7F
:103C6C0070472DE9F043B2F1FF3F14BF17460F46E2
:103C7C00ADF50D7D014604463A466846FFF7ECFD6E
:103C8C009DF80C30002B7BD09DF80D50002D77D17A
:103C9C0004F5847820462A463946FFF73FFF404614
:103CAC00FFF77DFC00286BD0A94646A804F5AC763E
:103CBC00FFF7A2FC002241464AA807F0E3FB479B12
:103CCC004AA93046C4F84C31489BC4F850319DF891
:103CDC00243184F8543107F06BFB46A8FFF79AFCAB
:103CEC003046FFF75CFC002841D0BDF80E30304662
:103CFC004697ADF826314895FFF740FC8DF8240126
:103D0C0048BBD4F8903103B3DB694FF480724CA9F3
:103D1C00304647938DF82591FFF753FB30460DF550
:103D2C0095724AA9FFF760FBD4F89001A8B10DF584
:103D3C0097724BA906F0C7FA46A92046FFF74EFD2D
:103D4C000546304607F01EFBAFE7D4F89431002B44
:103D5C00DBD01B69D9E70023D7E7D4F894010028FE
:103D6C00EAD00DF597724BA904F05AFCE4E7012355
:103D7C006A46394620468DF80D300195FFF719FD3E
:103D8C000DF50D7DBDE8F08330B5B2F1FF3F14BFEA
:103D9C0015460D46C7B004462A46FFF762FF0123BD
:103DAC002A46214684F8B4316846FFF755FD019B3D
:103DBC00C4F8B03147B030BD70B590F8AD41054690
:103DCC000E4644B9012380F8AD31FFF744FFD5F816
:103DDC00A8319C4200D370BD22463146284601349E
:103DEC00FFF73FFFF3E770B5154604460E46FFF7A5
:103DFC0032FF35B12A4631462046BDE87040FFF708
:103E0C00C3BF31462046FFF7D7FF012384F8B451D6
:103E1C00C4F8B03170BD00002DE9F0430C46ADF58F
:103E2C007F7D00EB81010646071D002302A8896DEA
:103E3C00154607F0BFFB06A8FFF7A0FB002852D0E1
:103E4C00DFF8B09016A8FFF7D7FB2AA8FFF7D4FB32
:103E5C00002206A92EA807F015FB2B9B2EA91AA849
:103E6C0017932C9B18939DF8B4308DF8643007F0A1
:103E7C009FFA1AA8FFF793FB80462AA8FFF7CAFB04
:103E8C00B8F1000F0ED12A4621463846FFF720FC28
:103E9C0016A8FFF7BFFB02A8FFF7BCFB0DF57F7D53
:103EAC00BDE8F0830DF1F8084FF480721AA8414672
:103EBC00FFF787FA7EA80DF093FD4A4601462B4684
:103ECC007EA8CDF800800DF00FFB1AA8FFF756FB6B
:103EDC007EAA214618B13046FFF79EFFB5E738465B
:103EEC00FFF7C4FBB1E72A4621463846FFF7BEFB75
:103EFC00D1E700BFAE100020F0B5ADF2645D044612
:103F0C000D464FF4807346AAFFF78CFD2A462146D6
:103F1C0086A8FFF7A1FC46AABDF826122046FFF79B
:103F2C007BFF002386AA294620468DF83032FFF706
:103F3C0040FC869A2146CCA8FFF78EFCCD9EB5425C
:103F4C0009D1889BCCAA8699CD932046FFF731FCEA
:103F5C000DF2645DF0BD324621460DF58960FFF728
:103F6C007BFCDDF85074BD4206D1889B0DF589624F
:103F7C003146CDF85034E8E73A46214668463E468D
:103F8C00FFF76AFC4FF48C7269460DF5896008F0F6
:103F9C005FFFE6E708B54B1C01D0FFF7ADFF012032
:103FAC0008BD70B500EB8101ADF50A6D05461E46E6
:103FBC00496D0023684607F0FDFA04A8FFF7EFFAF5
:103FCC00044650B940F2B220FFF73CFA6846FFF7BE
:103FDC0021FB20460DF50A6D70BD05EB860540F200
:103FEC000223DDF8B02814A8696D07F0E3FA18A8CD
:103FFC00FFF7D5FA044658B904A807F0C3F940F204
:10400C00B5200024FFF71EFA14A8FFF703FBDDE729
:10401C004FF0FF3504A8FFF78AFA00280FDD4FF4A4
:10402C00006228A904A8FFF7D4FA051E07DB2A466C
:10403C0028A918A8FEF762FCB5F5006FEADA04A807
:10404C0007F0A0F918A807F09DF9002DDCDA40F272
:10405C00C120D6E72DE9F041ADF5AA6DB3F1FF3FD4
:10406C0014BF9846904604460A460F46014682A85D
:10407C0088AEFFF7F1FB42462146C8A8FFF7ECFBE0
:10408C009DF814520DB3BDF816123A462046013174
:10409C00FFF7E7FD9DF8143222682046003B00969E
:1040AC00BDF82E13D56A18BF01234246A8472368D2
:1040BC000546BDF82E235E6D394603462046B047B3
:1040CC0028460DF5AA6DBDE8F0814FF4807231469B
:1040DC000DF58A600DF07DFBBDF82E330DF5876173
:1040EC002046ADF84634C99BCDF83C54CDF840344D
:1040FC00ADF84454CDF83884FFF770FBC8AA0546D8
:10410C004146C9902046FFF754FB02AA39464FF4AA
:10411C00807342AF2046FFF785FC06463A46294697
:10412C004FF480732046FFF77DFC02AA034631460C
:10413C00201D0097FFF735FFC2E72DE9F043ADF2E4
:10414C006C6DB3F1FF3F14BF1F46174604460A4679
:10415C00014682A8FFF780FB3A462146C8A8BDF865
:10416C0016920025FFF778FB839E56B92046C8AA05
:10417C003946C995FFF71DFB01200DF26C6DBDE8AA
:10418C00F083324621460DF587600DF58478FFF7F4
:10419C0063FB4FF48C720DF587610DF5AA6008F086
:1041AC0057FEBDF82E330DF5AA612046ADF85E35ED
:1041BC00CDF85855CDF85075FFF710FB05464FF468
:1041CC00807302AA31462046FFF72CFC4FF4807313
:1041DC00424629462046FFF725FC9DF85C25BDF894
:1041EC005E35201DA2B119464246FFF71FFA324632
:1041FC0049462046FFF735FD2368BDF82E2331468E
:10420C00D3F8548020462B46C047DDF84064ACE719
:10421C0002AA4946CDF80080FFF7C3FEF5E72DE969
:10422C00F047DDF820900F46904619464A46064660
:10423C001D46FFF7FBF9044648B12B46424639466A
:10424C003046CDF82090BDE8F04700F007B840F2BA
:10425C00CB20FFF7F7F82046BDE8F0872DE9F041B9
:10426C000D46ADF52A7D00EB810104461F4602A8E0
:10427C000023496D164607F09DF906A8FFF78FF944
:10428C00002859D0DFF808814FF4807231462AA8F3
:10429C000DF09FFA2AA80DF0A3FB2AAB184410F8D6
:1042AC00013C2F2B05D04FF4807241462AA80DF00B
:1042BC006CFA4FF48072B0996AA80DF08AFA6AA869
:1042CC000DF08EFB6AAB184410F8013C2F2B05D077
:1042DC004FF4807241466AA80DF057FA16A8FFF702
:1042EC008BF9002206A91AA807F0CCF81AA8FFF738
:1042FC0056F900283AD04FF480722AA91AA8FFF771
:10430C0060F84FF480726AA91AA8FFF75AF81AA835
:10431C00FFF734F96AAB2AAA294600933B4688B1C9
:10432C002046FFF77CFFE8B940F2E220FFF78AF85D
:10433C0016A8FFF76FF903E040F2CE20FFF782F8E2
:10434C0000241CE02046FFF72CFE10B940F2E620BA
:10435C00ECE72AAA29462046FFF788F910B940F263
:10436C00E720E3E716A8FFF755F98DE716A8FFF746
:10437C0051F9204632462946FFF7AAF9044602A80D
:10438C00FFF748F920460DF52A7DBDE8F08100BF06
:10439C00E51200202DE9F041ADF6C82DB3F1FF3F39
:1043AC0014BF1F46174604460A460D460146C8A8C8
:1043BC00FFF752FA3A4621460DF58760FFF74CFAA3
:1043CC00C89A21460DF5AA60FFF746FA9DF82C33E2
:1043DC006BB19DF82D3353B92A46BDF82E132046E8
:1043EC00FFF73FFCC8AA29462046FFF7E2F94FF435
:1043FC008C72C8A90DF5CD6008F02AFD4FF48C72B3
:10440C000DF587610DF5F06008F022FD4FF4807317
:10441C0048AA29462046FFF705FBDDF85465AE4255
:10442C004DD1CA9B4FF0FF360DF5AA62C8992046B4
:10443C00CDF85435FFF7BDF9BDF84634C8AA294666
:10444C002046ADF82E33DDF83C34C897CA93CDF82E
:10445C003C54FFF7AEF90DF5876239462046FFF75D
:10446C00A8F94FF48073294688AA2046FFF7DAFA98
:10447C00BDF87616BDF88E37994250D104EB810306
:10448C0088AA48A9986DFFF724F8002859D140F262
:10449C004320FEF7D7FF0DF6980231462046FFF772
:1044AC0088F90DF5CD6229462046FFF782F92046A2
:1044BC000DF5F0623946FFF77CF9002042E03246F8
:1044CC00214602A8FFF7C8F94FF48C7202A90DF52A
:1044DC001B6008F0BDFC4FF48C720DF51B610DF6E2
:1044EC00980008F0B5FCDDF8B889A84509D1CA9B3D
:1044FC000DF51B6231462046CDF8B839FFF759F956
:10450C009AE74246214602A84646FFF7A5F94FF422
:10451C008C7202A90DF51B6008F09AFCDBE79DF884
:10452C00742604F10408A2B988AA4046009248AA4D
:10453C00FFF737FD50B148AABDF88E174046FFF77C
:10454C0095F801200DF6C82DBDE8F08140F247200A
:10455C009FE788AA4046009248AAFFF760FE002811
:10456C00EFD140F24B2094E770B500EB81050F4C76
:10457C00A86DFEF794FF01462046FEF73FFFA86D9D
:10458C00FEF738FB01462046FEF738FFAE6D30468D
:10459C00FEF785FF04463046FEF72CFB241AA86D67
:1045AC00FEF76EFFA4FB000170BD00BF581E00207B
:1045BC0010B504460AF0C1FE2046BDE810400AF0D2
:1045CC00C5BE03681B68184770B505460C4651B14B
:1045DC0008460DF005FA2B680246214628465B6812
:1045EC00BDE87040184770BDFFF7EEBF10B504462C
:1045FC00FFF7EAFF2046BDE810400AF0A7BE000016
:10460C0038B508F09DFE0028FBD0094C41F28833E8
:10461C00084D0D212246AB60284628230AF02AFEBD
:10462C000023214623542846FFF7E0FF204638BDDF
:10463C007C2A0120581E002010B50446FFF7E0FF2D
:10464C0002492246BDE810400CF0A6BFB110002074
:10465C0013B50446FFF7D4FF01AA03490CF09CFFE5
:10466C00019B238002B010BD1B0F002010B588B039
:10467C0008F066FE0028FBD008F09CFEC0B236287D
:10468C000CD82F2801D808B010BD3138052800F2FD
:10469C00A680DFE800F0989A9C9EA0A26138C3B275
:1046AC00162BF0D81628EED801A353F820F000BF33
:1046BC0041200000C320000089200000ED1F0000F5
:1046CC00671F0000552000008D200000671F0000B0
:1046DC00671F0000671F0000CF200000671F00004D
:1046EC00671F0000D32000004D200000671F000052
:1046FC00671F0000512000007320000017200000ED
:10470C00671F0000671F0000A3200000FFF778FF61
:10471C0007AB05AA384902930DF11303019306ABBD
:10472C0000930DF112030CF037FF0598DDE906122A
:10473C0002F065F8A7E7FFF763FF07AB05AA2E4960
:10474C0002930DF11303019306AB00930DF11203C9
:10475C000CF022FF0598DDE9061202F062F892E7F0
:10476C00264808B0BDE81040FFF772BF2448F8E7B0
:10477C002448F6E7FFF744FF07AA23490CF00CFF87
:10478C00224B079A1A60186808B0BDE81040FEF773
:10479C00CBBD1F4C2046FFF75BFF23881B047FF526
:1047AC0072AF002323806EE71A48DAE71A4C2046D2
:1047BC00FFF74EFF208840B208B0BDE8104001F072
:1047CC0063BE1648CDE71648CBE71648C9E716482E
:1047DC00C7E71648C5E71648C3E71648C1E71648A9
:1047EC00BFE7164808B0BDE81040FFF725BF1448D6
:1047FC00F8E71448F6E700BFB41000201C24002092
:10480C001E2400205C2901201B0F0020FC2300200B
:10481C001A240020B8280120102400208828012008
:10482C00B428012014240020162400201824002071
:10483C0012240020AE280120AC280120A62A012039
:10484C00D92E0120012F01204A0000210AF0AEB818
:10485C004A00002109F05CBF1A4B4FF47A721A48D7
:10486C0010211B884380194B1B888380184B1B8895
:10487C00C380184B1B880381174B1B884381174B34
:10488C001B888381164B1B88C381164B1B880382A4
:10489C00154B1B884382154B1B888382144B1B883A
:1048AC00C382144B1B6893FBF2F30383124B1B88DC
:1048BC004383124B1B888383114B1B88C383FFF7E5
:1048CC00C3BF00BF1C240020882801201E24002008
:1048DC005C290120B82801201A240020B4280120CA
:1048EC001424002016240020182400201224002058
:1048FC00AE280120FC23002010240020B028012029
:10490C00AC28012038B5054608F01AFD0028FBD06C
:10491C0008F050FDC4B214482146FFF752FE12486D
:10492C000AF014FD772C06D1FFF796FF0F490E48BD
:10493C00FFF75CFE04E06D2C07D10D48FFF788FEF5
:10494C0008F0FEFC60B9284638BD632C02D101F09A
:10495C0043FFF5E721460448FFF733FE0549E6E738
:10496C0008F028FDECE700BF581E0020BF10002007
:10497C00B6280120CF1000202DE9F0473F4C102124
:10498C00DFF828A12046DFF82891FFF761FF238884
:10499C00DFF820E1012B3A4FDFF81CC1394A3A4EBF
:1049AC003A4D3B483B4931D16388AAF80030A38883
:1049BC00A9F80030E388AEF80030B4F908303B8039
:1049CC00B4F90A30ACF80030A3891380E389E28A89
:1049DC003380238A2B80638A0380A38A0B802E4B1F
:1049EC001A804FF47A72238B53432C4A1360B4F918
:1049FC001A202B4B1A80B4F91C202A4B1A80B4F9BC
:104A0C001E20294B1A801D48BDE8F0874FF0140872
:104A1C000023AAF80080A4F802804FF03C08238001
:104A2C00A9F80080AEF800303B801027A4F8048071
:104A3C00ACF8007013800C22E3803280E2812A8073
:104A4C0022821822238102806282012267810A80DD
:104A5C004BF68031A282104AA38113800F4AE38265
:104A6C00116030220E4922830A22A3830A806283BA
:104A7C000C4AE38313800C4A1380C4E78828012076
:104A8C00B8280120B428012014240020162400206A
:104A9C001824002012240020AE280120FC23002022
:104AAC0010240020B0280120AC2801201C24002058
:104ABC001E2400205C2901201A24002010B588B087
:104ACC0008F03EFC0028FBD008F074FCC0B236287D
:104ADC0014D82F2806D808F033FC002840F0DE81CB
:104AEC0008B010BD3138052800F2EB80DFE810F07B
:104AFC00420148014E0154015A0160016138C3B2B0
:104B0C00162BE8D81628E6D801A353F820F000BFDE
:104B1C00E5250000AF2600003D260000AF25000073
:104B2C00B72300001326000049260000B72300001D
:104B3C00B7230000B7230000C1260000B7230000F4
:104B4C00B7230000CD260000FB2500004D240000FB
:104B5C00B7230000072600002D260000CD250000FD
:104B6C00B7230000B72300009D260000A2480AF0DE
:104B7C00EDFBA249A048FFF739FD06A801F02FFE76
:104B8C009DF91C30BDF9182004939DF91F309C49E8
:104B9C0003939DF91E30984802939DF91D300193A3
:104BAC009DF91B3000939DF91A300AF0EBFB01F0D4
:104BBC0014FE01469048FFF719FD92498E48FFF705
:104BCC0013FD914B8C4819680AF0B7FB8A480AF020
:104BDC00BDFB8E498848FFF707FD8D4B8648198829
:104BEC0009B2FFF7E5FC8B498348FFF7FDFC8A4BC4
:104BFC008148198809B2FFF7DBFC88497E48FFF72A
:104C0C00F3FC874B7C48198809B2FFF7D1FC854926
:104C1C007948FFF7E9FC844B7748198889B2FFF78C
:104C2C00C7FC82497448FFF7DFFC814B7248198836
:104C3C0089B2FFF7BDFC7F496F48FFF7D5FC7E4B6F
:104C4C006D48198889B2FFF7B3FC7C496A48FFF7B5
:104C5C00CBFC7B4B6848198889B2FFF7A9FC7949D2
:104C6C006548FFF7C1FC784B6348198889B2FFF798
:104C7C009FFC76496048FFF7B7FC754B5E48198876
:104C8C0089B2FFF795FC73495B48FFF7ADFC724B9B
:104C9C005948198889B2FFF78BFC70495648FFF7C1
:104CAC00A3FC6F4B5448198889B2FFF781FC6D49FE
:104CBC005148FFF799FC6C4B4F48198889B2FFF7A4
:104CCC0077FC6A494C48FFF78FFC694B43E006A818
:104CDC0001F085FD9DF91B30BDF918200093654945
:104CEC009DF91A3044480AF04DFBF4E606A801F091
:104CFC0076FD9DF91F309DF91D2000935E499DF9AD
:104D0C001E30EFE747493C48FFF76EFC464B1988CD
:104D1C0089B23948FFF74CFCDDE658493648FFF7B5
:104D2C0063FC434BF3E743493348FFF75DFC424BCD
:104D3C00EDE734493048FFF757FC334B2E481968E0
:104D4C000AF0FBFA2C480AF001FBC4E62F492A486A
:104D5C00FFF74AFC2E4B198809B2DAE72D49264891
:104D6C00FFF742FC2C4BF6E72C492348FFF73CFCA1
:104D7C002B4BF0E731492048FFF736FC304BC6E7A8
:104D8C0030491D48FFF730FC2F4BC0E72F491A481C
:104D9C00FFF72AFC2E4BBAE72E491748FFF724FCE5
:104DAC002D4BB4E72D491448FFF71EFC2C4BAEE7F6
:104DBC002C491148FFF718FC2B4BA8E7FFF7DCFD3B
:104DCC0004462F490C48FFF70FFC2188A1E72D4919
:104DDC000948FFF709FC2C490748FFF707FC7AE65E
:104DEC002A490548FFF700FC2949F5E729490248FB
:104DFC00FFF7FAFB2849EFE7581E0020C80D0020EA
:104E0C00DF10002005110020FC23002012110020CF
:104E1C001A2400201F110020B82801202C1100207A
:104E2C0010240020391100201C24002046110020E1
:104E3C001E240020531100205C2901206011002049
:104E4C00B42801206D110020142400207A110020B8
:104E5C001624002087110020182400209411002013
:104E6C0012240020A1110020AE280120AE11002038
:104E7C00AC280120BB110020D5110020F01100201E
:104E8C00FD1100200B120020A62A01201612002072
:104E9C00D92E012021120020012F012008F08AFABE
:104EAC0019E600BF38B5044608F04AFA002874D059
:104EBC0008F080FAC1B265293FD013D83F295CD0E5
:104ECC000BD821295CD03A2952D03548FFF779FB11
:104EDC0034493348FFF78AFB2DE06229F5D1FDF701
:104EEC0041FD28E0A1F16D03DAB20B2AEDD80B2BB2
:104EFC00EBD801A252F823F027280000AB270000C2
:104F0C00AB270000AB270000AB27000045280000B2
:104F1C0009280000AB270000AB270000AB270000DE
:104F2C00AB2700004B28000000241F491C48FFF74A
:104F3C005BFB01F0C7FA1A4D2BE01C4905241848FD
:104F4C00FFF752FBF7E71A4D1A492B881448C3F1A7
:104F5C0001032B80FFF748FBB5F9001010480AF04D
:104F6C00ECF9E8E7FDF7E6FCE5E700F0C1FDE2E768
:104F7C002046FFF7C7FC0446DDE7FFF79FFDDAE7A5
:104F8C00FFF774FBD7E708F015FAC1B22846FFF714
:104F9C0018FB08F0D5F90028F5D1204638BD00BF24
:104FAC00581E0020461200202C1200203412002023
:104FBC00B62801203B1200200048704788280120A9
:104FCC0007B510F8013B3D2BFBD10DF1060204494E
:104FDC000CF0E2FABDF9060003B05DF804FB00BF6B
:104FEC008712002007B510F8013B3D2BFBD101AA1D
:104FFC0003490CF0D1FA019803B05DF804FB00BF33
:10500C00901C00200A4610F8013B3D2BFBD10149B6
:10501C000CF0C2BAB110002010F8013B1F2BFBD8CA
:10502C0070470000884B1B6870B533B1874C204625
:10503C000CF0D6FC2518AC4200D370BD14F8013B23
:10504C003B2B1FD82F2BF6D9303B0B2BF3D801A2BF
:10505C0052F823F0072B0000532A0000652A0000A9
:10506C00772A0000892A00009B2A0000AD2A000044
:10507C001729000017290000172900001729000024
:10508C00DF290000613BDAB2162AD4D8162BD2D80D
:10509C0001A252F823F000BFE9290000172B0000F1
:1050AC001F2A00001729000017290000BF2A000042
:1050BC00E72A000017290000172900001729000013
:1050CC00212B00001729000017290000252B0000B8
:1050DC00FB29000017290000172900000D2A0000E9
:1050EC002F2A00001729000017290000172900009B
:1050FC00D52900002046FFF763FF554B188020464A
:10510C00FFF78AFF044696E72046FFF759FF514BFD
:10511C0080B218804E4B5880F1E72046FFF750FFC5
:10512C004D4B80B218804A4B9880E8E72046FFF739
:10513C0047FF4A4B80B21880454BD880DFE72046AA
:10514C00FFF73EFF464B1880414B1881D7E72046AE
:10515C00FFF736FF3E4B434A588110802046FFF73D
:10516C005BFF138804461B047FF565AF0023138097
:10517C0061E72046FFF724FF3B4B80B21880344B8D
:10518C009881BCE72046FFF71BFF384B80B2188094
:10519C002F4BD881B3E72046FFF712FF344B80B278
:1051AC0018802B4B1882AAE72046FFF709FF314BDA
:1051BC0080B21880264B5882A1E72046FFF700FFEB
:1051CC002D4B80B21880224B988298E72046FFF72F
:1051DC00F7FE2A4B80B218801D4BD8828FE7284EE1
:1051EC002046FFF7FFFE30602046FFF715FF044610
:1051FC003068FEF799F84FF47A72336893FBF2F348
:10520C00134A138317E72046FFF7DAFE1D4A104BAB
:10521C00108058832046FFF7FFFE0446108840B2EA
:10522C0001F032F907E72046FFF7CAFE164B18804B
:10523C00074BD88363E715492046FFF7E3FE5EE78B
:10524C001349F9E71349F7E7F8200120CF2A012089
:10525C00882801201C2400201E2400205C29012009
:10526C00B82801201A240020B4280120142400207E
:10527C00162400201824002012240020AE2801201F
:10528C00FC23002010240020AC280120A62A012099
:10529C00D92E0120012F0120044B1868044B1B68E8
:1052AC00C01A48BF00F5905080B27047D816012044
:1052BC00D4160120014B1868704700BFC4B40020FD
:1052CC00F8B50124124D134E4FF490572C60014643
:1052DC003368114A2344126893FBF7F007FB103331
:1052EC00934202D100202860F8BD0C4B4FF40072A1
:1052FC00306803EB402007F0ABFD336820460133E8
:10530C0093FBF7F207FB1233336000232B60EBE7C0
:10531C00C4B40020D8160120D4160120000000705F
:10532C0070B5104B0124104E104D34602A681B6868
:10533C009A4202D10020306070BD0D4B4FF40072C8
:10534C00296803EB412107F083FD2B684FF4905241
:10535C002046013393FBF2F102FB11332B60002347
:10536C003360E9E7D8160120C4B40020D41601201C
:10537C000000007073B5064668460C46154601F0F1
:10538C002EFABDF800209DF90210A2F2BC729DF914
:10539C00033092B27F2A26D8C8B20C2823D8D8B2B0
:1053AC001F2820D843EA411343EA42239BB29DF8BD
:1053BC000500338017289DF905109DF906309DF9DD
:1053CC00072012D8D8B23B280FD8D2B23B2A0CD81F
:1053DC005B0143EAC12343EA52039BB223800023BF
:1053EC002B7002B070BD0023E1E70023F6E7034603
:1053FC00806B08B104F0A0BED86B08B104F056B8AD
:10540C00704730B40446806B114618B13BB930BCC0
:10541C0004F071BDE06B10B130BC03F036BA30BC97
:10542C00704700230A2209F0BABF70B505460C4636
:10543C0051B108460CF0D4FA2B6802462146284696
:10544C005B68BDE87040184770BDFFF7EEBF10B544
:10545C000446FFF7EAFF2046BDE8104009F076BF8E
:10546C00034607B5806B48B101220DF1070104F02A
:10547C0055FC012804D19DF8070003E0D86B20B936
:10548C004FF0FF3003B05DF804FB01220DF1070172
:10549C0003F02AF9EDE7000070B5184994B0184AEA
:1054AC0000230968684606F085F8164C019B04A990
:1054BC0004F110006360029BA3609DF80C30237311
:1054CC0005F076FF6846FEF7A5F8A36C0BB9E36C04
:1054DC005BB10D4E00240D4D2846FEF728F830B96F
:1054EC000A4805F04FFF0A4B1C6014B070BD2846EB
:1054FC000134FFF7B5FF06F8010BEDE7042400209B
:10550C008B120020A8200120CF2A0120B8200120D6
:10551C00F820012010B586B00D4C04A801F05FF9FD
:10552C009DF91730BDF91020204603939DF91630D4
:10553C00084902939DF9153001939DF9133000939E
:10554C009DF912300CF006F8204606B010BD00BFD5
:10555C002C2A0120B212002070B5244B04460D46B3
:10556C0023491E680CF0E3F9FFF7D4FF0146201D18
:10557C000CF0DDF92A461F4904F114000BF0EAFF88
:10558C001D4B04F12402266203F1280153F8040B8D
:10559C008B4242F8040BF9D1184B04F14C0203F185
:1055AC00280153F8040B8B4242F8040BF9D1144B2D
:1055BC0004F1740203F1280153F8040B8B4242F8F6
:1055CC00040BF9D1FFF7F8FC04F19C0300F1200265
:1055DC0050F8041B904243F8041BF9D104F1BC00B1
:1055EC000849BDE870400CF0A2B900BF6828012042
:1055FC00961200209B120020A62A0120D92E0120F1
:10560C00012F0120A0120020F8B51F4C0F4619469F
:10561C001E4B002A15462360A3F57003B8BFD51D99
:10562C00A061A3F2FB73BEB2ED106284A36003F120
:10563C005B43684303F5F113E68215FB06F57843EB
:10564C0003F60F43E06104F12C00E36003F18243A5
:10565C002584A3F60243C4F8F83103F10D2303F5B6
:10566C007203053363624FF4FC7363601023236190
:10567C004FF4E673A3620023C4F8FC310123A38228
:10568C00FFF76AFF2046F8BDE41801205249464650
:10569C00034603484268C0F8FC311A444260704724
:1056AC00E4180120134B9A6C70B50646CAB15469C4
:1056BC00002522462B461049104809F063FE0023B2
:1056CC0000220F48FFF79DFE4FF400723146094847
:1056DC00FDF71EF922462B460948BDE87040FFF73E
:1056EC0090BEDB6C13B1D3E90045E2E71C461D46C6
:1056FC00DFE700BFA8200120A5120020581E0020C3
:10570C00B820012030B589B00446012506A801F067
:10571C0066F89DF91F30234A204604939DF91E30EC
:10572C00214903939DF91D3002939DF91B30019380
:10573C009DF91A300093BDF918300BF00BFF1E23A6
:10574C0004F1500025626361184B1968184BA16174
:10575C001B68E361174B1B889BB26362164B1B885B
:10576C009BB2A362154B1B889BB2E362144B1B8844
:10577C001BB22363134B1B881BB26363124B1B8836
:10578C001BB2A363114B1B881BB2E363104B1B684A
:10579C002364FFF7E1FE4FF055332846C4F8FC3183
:1057AC0009B030BD96120020B0120020B882002043
:1057BC00FC2300201C2400201E2400205C29012036
:1057CC00B82801201A24002010240020B028012021
:1057DC0068280120022810B5044654D108F0E2FED6
:1057EC00304B1A8892B2B0FBF2F302FB13032E4A31
:1057FC00116813608B4246D22C4C2D4922880B88A1
:10580C0092B29BB29A4240D82A4C2B4922880B88E0
:10581C0092B29BB29A420CD9284B2288098892B238
:10582C0089B2B0FBF3F3B3FBF2F402FB14338B42FB
:10583C0035D2224AB0FBF2F302FB13034FF4616240
:10584C00B3FBF2F31E4A128892B2934204D31D4A60
:10585C00128892B2934209D31B4A128892B2934295
:10586C001DD31A4A128892B2934218D2184B1C8834
:10587C00124BB0FBF3F044F6206303FA84F4A0421D
:10588C0034BF04240324204610BD23880A889BB20D
:10589C0092B2B0FBF3F103FB11039342B4D3042493
:1058AC00F1E700BF1C2400202C1D01205C290120E5
:1058BC001E240020AE28012012240020805101005B
:1058CC00B4280120142400201624002018240020C1
:1058DC00AC280120034B1A6882421ABF18600120C1
:1058EC00002070472822002010B586B0044604A87A
:1058FC0000F075FF9DF915100846FFF7EBFFE0B1BE
:10590C009DF9133020460E4A02939DF912300391F3
:10591C000193BDF910300B4900930B4B1B680BF036
:10592C0019FE0A4809F012FD09490848FFF78DFDD8
:10593C0006482146FFF789FD012006B010BD00BFC7
:10594C0013140020CC120020B8820020581E002016
:10595C001F0F0020F0B589B0044606A800F03FFFE9
:10596C001A4B9DF91F701A889DF91E609DF91D50E8
:10597C0012B29DF91B009DF91A10BDF91830009157
:10598C00CDE90367CDE90105E2B9114A1149204679
:10599C000BF0E0FD104809F0D9FC10490E48FFF758
:1059AC0054FD21460C48FFF750FD0D490A48FFF7FE
:1059BC004CFD08F0D3FC01460748FFF732FD0120EF
:1059CC0009B0F0BD024A0749E1E700BFB828012041
:1059DC007C1C0020E7120020581E00201F0F002006
:1059EC00270F002007130020F0B5374D4FF46162EC
:1059FC00364FB0FBF5F405FB1403B3FBF2F3344A5A
:105A0C001288344A16883988B6B289B28E4213D9B4
:105A1C0011883E8889B2B6B2B4FBF1F701FB17418D
:105A2C00B14209D3138810889BB280B2B4FBF3F354
:105A3C0003FB00006843F0BD274A118889B29942E4
:105A4C0004D82649098889B2994209D82449098879
:105A5C0089B2994215D82349098889B2994210D93B
:105A6C002149224D0E882D88B6B2ADB2AE4208D96E
:105A7C000B889BB2B0FBF3F3088880B203FB0000E9
:105A8C00D9E7118889B2994208D910881823634341
:105A9C0013FA80F04FF461635843CCE70F4909883F
:105AAC0089B2994204D80E4D298889B2994209D8F5
:105ABC000C49098889B29942BDD81823108804FB77
:105ACC000333E5E72888E1E7805101001224002028
:105ADC00AC280120AE280120B42801201424002079
:105AEC0016240020182400205C2901201E240020EC
:105AFC00034A936B43F04003936330BFFDE700BF51
:105B0C0000400D40F8B5224B9F6BDA6C42F001025D
:105B1C00DA64BFF34F8F9A6B22F002029A639A6B8E
:105B2C0012F00202FBD19A659A6D002AFCD172B672
:105B3C00174E336D746D716D326DA142F9D19A426D
:105B4C00F7D1E40B134844EA43442146FFF769FCC0
:105B5C0011491048FFF779FC2046FFF745FF014635
:105B6C0005460C48FFF75DFC0A4809F0EFFBAC4218
:105B7C000DD2074BB5659A6DAA42FCD147F00207CE
:105B8C009F639A6B9207FCD562B6FFF7B1FFF8BD25
:105B9C0000400D40581E00202713002030B504464D
:105BAC0095B0002840F083807D48FFF79DFE0028CB
:105BBC004CD07C4D2B68D3F88014B1B12346784A75
:105BCC006846009404F04DFB70BB2B68D3F880142E
:105BDC00B9B9D3F88404F0B10C91012300F58961B3
:105BEC006F4A684603F0FDFC14E0D3F884040028E7
:105BFC00EBD00B460C916A4A0146684603F0BDF89F
:105C0C00E2E70023664A01F58961684600930123A7
:105C1C0004F0E6FB40B964496448FFF718FC4FF008
:105C2C00FF34204615B030BD2B68D3F8800428B162
:105C3C005B4904F0FBFF48B95D49EDE7D3F88404F8
:105C4C000028F9D0564903F0BBFAF4E75948FFF79E
:105C5C0081FE0028E3D0534944F20223554A68469A
:105C6C00096805F0A7FC544C019B04A904F1100031
:105C7C006360029BA3609DF80C30237305F098FBC6
:105C8C006846FDF7C7FCA36C63B14C4B00221A604D
:105C9C004B4B1B881BB2002B30D04A48FFF732FD10
:105CAC00484934E0E36C002BEFD14749B4E70128B5
:105CBC00EBD0022833D0E31E9BB2022BB1D83E4B63
:105CCC009A6C0AB9DB6C7BB13D4B1B881BB243B998
:105CDC003A4B4FF440501B685843FFF7D9FCFFF781
:105CEC00E1FC3A4805F04EFB042C4FD100F0F0FAE1
:105CFC00002000F0E3FAFFF705FF92E7344B012197
:105D0C0010221868334B1B68FFF77EFC01464FF4DA
:105D1C0000722E48FCF7F2FDB0F5007F34DB4FF437
:105D2C0040522D492948FCF7E9FDB0F5405F044687
:105D3C00224D24D229491D48FFF787FB21461B48D9
:105D4C000324FFF76EFB26491848FFF77EFB022160
:105D5C00164809F0F2FA154809F0F8FA214A1368C6
:105D6C00013313604FF47A722B68B3FBF2F102FB30
:105D7C001133002B9FD11548FFF739FB9BE72B689C
:105D8C00022401332B60E9E7032494E7032C04D0AD
:105D9C00154B0822C3F8882041E7002441E700BFD7
:105DAC0088290120042400202C130020581E0020D8
:105DBC0038130020D8290120A820012028210120F7
:105DCC00B8280120C0B2002044130020B8200120C4
:105DDC00FC230020B8820020C08200205613002033
:105DEC00270F00208820012000400042431C2DE991
:105DFC00F041044613D1FFF75DFA05460028FAD1AD
:105E0C003048FFF78DFA2F4B2F4A53F8041B42F8FA
:105E1C0025100135082DF8D12046BDE8F081002869
:105E2C00FADBFFF7D7FC0446FFF736FA2F28F3D935
:105E3C00264B1D882DB25DBB224FB846FFF73AFAB0
:105E4C0006460028FAD101354046FFF769FA08F5F5
:105E5C000078302DF2D11B4A33461B4952F8040B03
:105E6C0041F823000133082BF8D1194A57F8043BA9
:105E7C0001361B0CB6F5C05F22F8023BF6D1154B70
:105E8C001B68002BC8D02046BDE8F041FFF786BE4A
:105E9C000F4E0027B046FFF70DFA05460028FAD141
:105EAC0001374046FFF73CFA08F50078302FF2D165
:105EBC00054B56F8042B43F825200135082DF8D155
:105ECC00DDE700BFCCB4002000210120B828012060
:105EDC00C0820020FC200120074800234FF47A7276
:105EEC0006490373C0E90132C0E91233044B054A79
:105EFC00036009F041BB00BFA8200120F50E000093
:105F0C00A4060020302200202DE9F843234B052461
:105F1C00234AD3F82032DFF8A49023F07F43DFF834
:105F2C00A080204F1360204B204A1A60D9F80050F3
:105F3C00FF23002105F5926685F8BC3485F8C8145A
:105F4C00304606F02FFC3046C5F88C6405F0A8FFEF
:105F5C00A8B90123D5F88C1428461A4605F0C0FAC6
:105F6C0068B1134901240F48FFF771FA114B1C60FB
:105F7C00FFF792FAFFF756F82046BDE8F883414642
:105F8C003846FFF764FA642008F00EFA013CCDD1D4
:105F9C0009490448FFF75BFAEEE700BF00441F40D5
:105FAC00B8820020581E0020EC1C0120552C00004B
:105FBC0058130020FC2001207A1300200424002018
:105FCC006A1300202DE9F74F044608F0EBFA009015
:105FDC0008F0C4F9984B824600221B6854F8221032
:105FEC0043F822100132802AF8D1043C03F5FE70EC
:105FFC001A4652F8041F54F8045F9042A1EB0501B5
:10600C001160F6D1002253F8041F0029B8BF494291
:10601C008A42B8BF0A468342F5D1012A4FF00204E6
:10602C0008DD012123460134182C03D001FA03F3B7
:10603C009342F7DD611E814ADFF8148252F8213059
:10604C004046C146013342F821307F217C4B1A680F
:10605C0094424FF0010202FA04F288BF1C60013A2C
:10606C0050F8045F013905EA02050560F8D1754D59
:10607C004FF4007201914FEA840B284606F0C6FEDD
:10608C004FF0A532009B0BF107072A600BF10806B5
:10609C006D4A07200199128844EA02426A60012283
:1060AC002A615A44C5E9023A6A612023D9F80020D2
:1060BC00C9F80010AA61A3EB040E55F8209058F80B
:1060CC00042BBEF1000F21DD02FA0EF2734642EAF8
:1060DC00090245F8202001318029ECD1DFF87481C8
:1060EC00D8F8004004EB0609B9F1800F26DC5748BC
:1060FC00B200544900EB840006F0AAFEC8F80090E8
:10610C004FF00109484603B0BDE8F08F00F1010CD7
:10611C0006D149EA0202202345F820206046DAE73E
:10612C00E31A22FA03F343EA090345F820300EF18F
:10613C00200360469A4045F82C20CCE77A2C24DDCD
:10614C0000222346414910467F2B19DD3AB1802CA1
:10615C00C4F18003C8BF00232344C8F800303B4877
:10616C00FFF7AEF8B0F100094FEA8602354937481F
:10617C0018BF4FF0010906F06BFEC8F80060C1E7CC
:10618C0041F8230001220133DEE76A69C4F17A0386
:10619C002C4943EA0243DFF8B4B022466B610B464C
:1061AC0053F8040B4BF822000132802AF8D1C4F1C9
:1061BC00800A26480191C8F80020A7EB0A07CDF801
:1061CC0000A0FFF77DF86A69B0F100094FF00700F5
:1061DC006FF30F0218BF4FF001093A431B4F6A616E
:1061EC000022DDE90031C8F80020013816D112B1C7
:1061FC000622C8F80020D8F8001000220BEB810B07
:10620C00564511DC002A3FF47DAF803C34449E425D
:10621C00B8BF00240C44C8F8004073E751F8042BB5
:10622C0047F8042B0122E0E755F82A200AF1010A6D
:10623C004BF8042B0122E3E70C2400204C21012015
:10624C0020210120E41601201A240020D41401205E
:10625C00E41A0120381D012070B505460C4651B1D9
:10626C0008460BF0BDFB2B680246214628465B68AE
:10627C00BDE87040184770BD064B0522C3F8B4202A
:10628C000822C3F8A422044A536843F08063536085
:10629C00704700BF00801F400080004208B5FFF728
:1062AC00EBFF054B4FF080624FF47A70C3F88420FB
:1062BC00BDE8084008F078B800800042C1B2022066
:1062CC0008B508F009FC6420BDE8084008F06CB87B
:1062DC000021032008F000BC0121032008F0FCBBC6
:1062EC002DE9F3410121022008F016FC0120FFF7F3
:1062FC00E5FF0121032008F00FFCFFF7E9FF642004
:10630C0008F052F8FFF7E8FF544A554901A800F08D
:10631C000DF94C2101A800F01AF94C22002800F0CC
:10632C00968050490B24504809F02CF88123022206
:10633C004C2101A84D4D00F041F9302307224C218E
:10634C0001A800F03BF9002308224C2101A800F021
:10635C0035F92246013415F8013B4C21E4B201A871
:10636C0000F02CF90F2CF4D1302373224C2101A80E
:10637C0000F024F9202374224C2101A83C4E00F09B
:10638C001DF9E02375224C2101A8002500F016F917
:10639C00DFF8F08025236B224C2101A8354F00F04B
:1063AC000DF960233B224C2101A800F007F916F8E7
:1063BC00014B88234C2101A82246013500F0FEF840
:1063CC00B8F80030621C4C21DBB201A8D2B200F04C
:1063DC00F5F83B88A21C4C21373B01A8D2B2DBB2AA
:1063EC0000F0ECF8E21C80234C21D2B201A800F0A2
:1063FC00E5F8221D00234C21D2B201A800F0DEF8F2
:10640C00042DD4D11C491848FFF726FF15224C2126
:10641C0001A800F0ADF8002301461022124808F044
:10642C00BEFF114808F092FF14490F48FFF714FF04
:10643C0076224C2101A800F09BF800230146102283
:10644C00094808F0ACFF084808F080FF03E00C494D
:10645C00054808F097FF02B0BDE8F081A086010066
:10646C00681E002096130020581E0020C00D00202E
:10647C00BC0D0020B0280120B7130020BF13002052
:10648C00A01300201024002073B504460A4E0025EA
:10649C000A4AE4B20A4901A800F048F816F8012BA0
:1064AC00013523464C21013201A8D2B200F086F806
:1064BC00042DF3D102B070BDBC0D0020A0860100EC
:1064CC00681E002013B5144C01A8144A144900F09E
:1064DC002DF820461349FFF7BFFE15224C2101A8C9
:1064EC0000F046F8002301461022204608F057FF22
:1064FC0020460D49FFF7B0FE76224C2101A800F092
:10650C0037F8002301461022204608F048FF2046A9
:10651C0008F01CFF02B010BD581E0020A086010020
:10652C00681E0020B6130020BE13002070B50C4668
:10653C0016460160054608460EF08EFB642007F0F7
:10654C0033FF2046314601F0FDFD284670BD08B5ED
:10655C004900036883F8A510012183F8301183F8F2
:10656C002F11006801F080FCB0FA80F0400908BDE2
:10657C0070B5036801260D46490083F83061044666
:10658C0083F8A510114683F82F61006803681B6817
:10659C0098470021206801F067FC08B1002070BD0D
:1065AC00334632462946206801F0CEFC0028F5D04F
:1065BC00206803685B699847C0B2F0E770B5044681
:1065CC0001251E4603684800114683F8305183F8B4
:1065DC002F5183F8A500206803681B689847206832
:1065EC00314603681B6898472946206801F03CFC3B
:1065FC00B0FA80F0400970BD2DE9F0413C2440F226
:10660C006D184FF0640C4FF4C87EB0FBF4F2B2FB83
:10661C00F4F304FB120004FB1322C87118208A71D6
:10662C00B3FBF0F200FB1233101D4B710723B0FBD0
:10663C00F3F3C3EBC303C01A087100200446C5B2C0
:10664C0005F2B27313F003064BD193FBFCF70CFB72
:10665C001737002F48D193FBFEF70EFB1737002F8F
:10666C000CBF4FF4B77747463C440130A242E6D208
:10667C0005F2B2750D80D6BB642593FBF5F005FBD6
:10668C001030B8BB4FF4C87593FBF5F005FB103018
:10669C00002840F26D1008BF4FF4B770121B1B4F4F
:1066AC0002440020012828D14EBB642593FBF5F44D
:1066BC0005FB14342CBB4FF4C87593FBF5F405FBA8
:1066CC001434002C0CBF1D241C24A2421BD30130FB
:1066DC00121B0C28E6D1013001328870CA70BDE85B
:1066EC00F08140F26D17BFE74FF4B777BCE740F28B
:1066FC006D10D3E74FF4B770D0E73C5CE5E71C2492
:10670C00E3E71D24E1E7C0B2E5E700BFF00D002090
:10671C00028840F26D134E32D2B22DE9F041534350
:10672C00002464264FF4C877A24227DC02F2B2722E
:10673C006421274F90F902E002F003087B43254DBA
:10674C00B2FBF1F401FB142401218E4527DC90F9F6
:10675C0006204FF4616490F90510C2EB021292000E
:10676C0004FB012290F907100A4490F90310184811
:10677C00013900FB01201844BDE8F08104F2B2712C
:10678C008D070AD191FBF6F506FB151525B991FB82
:10679C00F7F507FB151101B901330134C4E70229E0
:1067AC0011D1B8F1000F0ED134B94FF4C87C92FB63
:1067BC00FCF60CFB162636B903F5181303F56E53CD
:1067CC0001310135C1E72E7807FB0633F8E700BF2E
:1067DC0080510100F00D002070470020704710B56B
:1067EC00044607F0DFFE2146FFF706FF012010BD2F
:1067FC0008B5FFF78DFF07F0E9FE012008BD73B562
:10680C000D46144606466846FFF7E9FF6846ADF8A4
:10681C0000608DF802508DF80340FFF7E9FF02B0DD
:10682C0070BD73B50D46144606466846FFF7D7FF94
:10683C0068468DF805608DF806508DF80740FFF717
:10684C00D7FF02B070BD38B504460D463C22294630
:10685C00204608F021FB0028F8DD38BD2DE9F04773
:10686C000F4600F500511646D1F828341BB900F537
:10687C000872174C226033444FF0000800F584690D
:10688C00DFF84CA000F50874C1F82834464501DC4B
:10689C00BDE8F087DAF80030A6EB08023946A9EB20
:1068AC00030518469542A8BF15462A46A84406F08B
:1068BC00CFFA03462F442B449945CAF80030E5D152
:1068CC004FF400712046FFF7BEFFCAF80040DDE729
:1068DC00401D012070B5054600684C1E002603685B
:1068EC002146DB6998472868214603681B6A98474C
:1068FC0008B9304670BD0136F5E70068013A10B5AD
:10690C000468E46CA04742F2050242F2010300283D
:10691C000CBF1046184610BD0068013A10B404684C
:10692C00246DA4465DF8044B60470000024B0068E0
:10693C00196003685B6C1847A426012010B50C463F
:10694C0008F092FA0028FBD020463C21BDE810400C
:10695C0008F040BA00F5005330B493F8245435B124
:10696C00D3F82814114430BCC3F82814704730BC39
:10697C00FFF774BF07B501228DF807100DF1070161
:10698C00FFF7E8FF03B05DF804FB07B50222ADF892
:10699C0006100DF10601FFF7DDFF03B05DF804FBF7
:1069AC0038B50C460978054699B12046013C0BF0E8
:1069BC0017F8411C2846C9B2FFF7DCFF14F8011F79
:1069CC00284619B9BDE83840FFF7DFBFFFF7DDFFF8
:1069DC00F4E7BDE83840FFF7CDBF00004DF20243AD
:1069EC00994202D10149FFF7DBBF7047C613002063
:1069FC004DF20243994210B5044618D1FFF7C5FF7A
:106A0C0020464FF6FF71FFF7C0FF20460021FFF72D
:106A1C00B1FF20460649FFF7C3FF20460449FFF7A4
:106A2C00BFFF20460021BDE81040FFF7A3BF10BDFB
:106A3C00C613002007B5042201910DEB0201FFF7EC
:106A4C0089FF03B05DF804FB70B5044686B0642181
:106A5C003C4EFFF79AFF062120460025FFF7EAFF80
:106A6C0064212046FFF791FF37492046FFF798FF36
:106A7C0000212046FFF789FF14212046FFF7DAFF9B
:106A8C00013536F8021B2046FFF77FFF142DF7D196
:106A9C0004212046FFF7CEFF44F204012046FFF705
:106AAC0074FF44F205012046FFF76FFF44F20B011F
:106ABC002046FFF76AFF44F20C012046FFF765FF02
:106ACC0001212046FFF7B6FF4DF202412046FFF7A9
:106ADC005CFF00212046FFF7ADFF02212046FFF7A7
:106AEC00A9FF4FF440512046FFF74FFF43F201013D
:106AFC002046FFF74AFF15492046FFF751FF14497E
:106B0C002046FFF74DFF9FED130A01AA0221032037
:106B1C0007F0F2FA2A46104901A80AF036FE01A93C
:106B2C002046FFF73DFF0D4901AA0A2331F8020F59
:106B3C00013B02F8010BF9D101A92046FFF730FF08
:106B4C0006B070BDC00C0020CD130020E113002056
:106B5C00C6130020CDCCCC3FE6130020202400200F
:106B6C0070B504460068002603685B6898470146C8
:106B7C0005462046FFF75EFFAE4200D170BD0136E0
:106B8C0020463146FFF756FFF6E7F8B500F50057FB
:106B9C000446164697F8243433B1FFF79BFE0130B8
:106BAC008000C7F82804F8BD4D1EFFF793FE014680
:106BBC002046FFF73FFF2068324629460368DB6911
:106BCC0098472068294603681B6A984701460028A5
:106BDC00E9D02046FFF72EFFF3E700002DE9F04344
:106BEC000446E9B0006818AD08AE03680DF116084C
:106BFC0007AF28AA03950296CDF804800097D3F826
:106C0C00249006ABC847BDF8161020460131FFF79B
:106C1C0011FF069B43F201012046013318BF0021EE
:106C2C00FFF7B3FE20460021FFF7AFFE0699204682
:106C3C00FFF700FF20460021FFF7A7FE20460021AA
